:03000000020539BD
:0C053900787FE4F6D8FD75816202058031
:10079F002020202020202020202020202020487AC8
:10070900104F4652455155454E435920204D4554A9
:0D0719004552034A206B4D04457E9FF3EDD1
:0602C1008E218F228D2327
:1002C70078247C007D007BFF7A07799F7E007F1072
:1002D7001200E6852134852235D3E5359400E534CF
:0702E70094005003020427FC
:1002EE00E4F536753B01F53AF539F538F53CF53D53
:1002FE00D203AE34AF35E4FCFDAB3BAA3AA939A824
:10030E003812064EEC4D4E4F601DAF3BAE3AAD3936
:10031E00AC38E47B0AFAF9F812018E8F3B8E3A8DD7
:10032E00398C38053680CBE5362403C39523F53753
:10033E0024FFFFE434FFFE7C007D03120139744A72
:10034E002FF8E6F531E53775F00384E5F07018E522
:10035E003D453C6012E537600E053DE53D700205FA
:10036E003C142424F8762EAE34AF35AC3AAD3B12A5
:10037E0001398C348D35AF3BAE3AAD39AC38E47BB8
:10038E000AFAF9F812064E8F3B8E3A8D398C38AE3A
:10039E0034AF35E4FCFDAB3BAA3AA939A8381206B6
:1003AE004EEF2430FF053DE53D7002053C1424243C
:1003BE00F8A607E47F01FEFDFCAB3BAA3AA939A8DB
:1003CE0038D31201DD40051537020353AF237E00EB
:1003DE00EF64027015C3E536940374809480500A5E
:1003EE00053DE53D702B053C8027EF64014E702CDA
:1003FE00C3E522940AE52194005021053DE53D70A8
:10040E0002053C142424F8762A053DE53D700205CC
:09041E003C142424F8762A800322
:100427007524307541007542007543247B007A00BE
:09043700794F1205C5C200C20391
:010440002299
:10069200120745C203E4F54DF54EC200C201F54909
:1006A200754401D202C20474452549F8E6F5A074E6
:1006B200FFF561F56275B801D288D28AD2A8D2AAB2
:0306C200D2AF2292
:10078E001206923000FDAD44AF60AE5F1202C18022
:01079E00F268
:03001300020441A3
:10044100C0E0C0F0C083C082C0D075D000C000C081
:1004510001C002C003C004C005C006C007300303C9
:1004610002051EE560455F7006E5496403600320EF
:1004710002067E007F0180047E007F00EE4F24FF94
:10048100B39202300119855F61856062854D5F8598
:100491004E60854944754D00754E00D20080743020
:1004A1000260C3E549940374809480504020043D68
:1004B100E56094E4E55F940C5024C3E5629560FF28
:1004C100E561955FFE120006AA06AB07AE5FAF605D
:1004D1007C007D64120139C3EB9FEA9E400BD3E59A
:1004E100609464E55F94005004054980263004233C
:1004F100D3E5499400748094804018754900C20482
:100501008011D3E5609400E55F94004003D380013E
:10051100C3920274452549F8E6F5A0B201D007D08F
:1005210006D005D004D003D002D001D000D0D0D065
:0805310082D083D0F0D0E0324B
:030003000206C52D
:1006C500C0E0C0D0D3E54E94E7E54D94804003D318
:1006D5008001C39204054EE54E7002054DD0D0D081
:0206E500E03201
:10072700D3EF9400EE940040147D6E7C00ED1D70B5
:0D073700011CED4C70F7EF1F70E61E80E313
:010744002292
:10077800C2B7D2B6007590FF00D2B500AF9000C2E4
:05078800B5EF5480FFF5
:01078D002249
:0906E7007F057E001207277F3811
:1006F000AE07120778EF70FAC2B7C2B6008E90004C
:09070000D2B50000C2B5000022D0
:10075F00AE07120778EF70FAD2B7C2B6008E9000CC
:09076F00D2B50000C2B500002261
:100745007F0F1206E91206E71206E77F0C1206F084
:0A0755007F011206F07F060206F095
:0605C5008B3E8A3F8940D5
:1005CB00E4FD7F801206F0AB3EAA3FA9408D8275F9
:1005DB00830012010CFF6010EDC3941074809480A3
:1005EB00500612075F0D80DFEDC39410748094806A
:1005FB0050087F2012075F0D80EEE4FD7FC01206CE
:10060B00F0AB3EAA3FA9408D8275830012010C60AE
:10061B001FEDC39410748094805015AB41AA42A96E
:10062B00438D8275830012010CFF12075F0D80D181
:10063B00EDC394107480948050087F2012075F0DD7
:02064B0080EE3F
:01064D00228A
:1005450002078EE493A3F8E493A34003F68001F237
:1005550008DFF48029E493A3F85407240CC8C333B7
:10056500C4540F4420C8834004F456800146F6DF86
:10057500E4800B0102040810204080900709E47E06
:10058500019360BCA3FF543F30E509541FFEE4937B
:10059500A360010ECF54C025E060A840B8E493A342
:1005A500FAE493A3F8E493A3C8C582C8CAC583CA6D
:1005B500F0A3C8C582C8CAC583CADFE9DEE780BE25
:0107260000D2
:10001600E709F608DFFA8046E709F208DFFA803ECC
:1000260088828C83E709F0A3DFFA8032E309F608B9
:10003600DFFA8078E309F208DFFA807088828C8321
:10004600E309F0A3DFFA806489828A83E0A3F608D5
:10005600DFFA805889828A83E0A3F208DFFA804CAF
:1000660080D280FA80C680D4806980F28033801086
:1000760080A680EA809A80A880DA80E280CA8033EF
:1000860089828A83ECFAE493A3C8C582C8CCC58367
:10009600CCF0A3C8C582C8CCC583CCDFE9DEE78037
:1000A6000D89828A83E493A3F608DFF9ECFAA9F0B6
:1000B600EDFB2289828A83ECFAE0A3C8C582C8CC0C
:1000C600C583CCF0A3C8C582C8CCC583CCDFEADE25
:1000D600E880DB89828A83E493A3F208DFF980CC87
:1000E60088F0EF60010E4E60C388F0ED2402B40480
:1000F6000050B9F582EB2402B4040050AF23234527
:06010600822390006673E5
:10010C00BB010CE58229F582E5833AF583E02250A8
:10011C0006E92582F8E622BBFE06E92582F8E222F2
:0D012C00E58229F582E5833AF583E493220C
:10013900BC000BBE0029EF8DF084FFADF022E4CCAA
:10014900F875F008EF2FFFEE33FEEC33FCEE9DEC73
:10015900984005FCEE9DFE0FD5F0E9E4CEFD22EDB9
:10016900F8F5F0EE8420D21CFEADF075F008EF2F03
:10017900FFED33FD4007985006D5F0F222C398FDF4
:050189000FD5F0EA2291
:10018E00E88FF0A4CC8BF0A42CFCE98EF0A42CFC10
:10019E008AF0EDA42CFCEA8EF0A4CDA8F08BF0A48E
:1001AE002DCC3825F0FDE98FF0A42CCD35F0FCEBED
:1001BE008EF0A4FEA9F0EB8FF0A4CFC5F02ECD39B2
:0F01CE00FEE43CFCEAA42DCE35F0FDE43CFC221F
:10064E00C2D5E830E70FB2D5E4C39BFBE49AFAE4D7
:10065E0099F9E498F8EC30E717B2D5120684120235
:10066E002FE4C39BFBE49AFAE499F9E498F880032B
:10067E0012022F30D50DE4C39FFFE49EFEE49DFDD4
:04068E00E49CFC22CA
:1001DD00EB9FF5F0EA9E42F0E99D42F0EC6480C899
:0601ED0064809845F02239
:0C000600EE30E707C3E49FFFE49EFE22FB
:1001F30075F008758200EF2FFFEE33FECD33CDCCC3
:1002030033CCC58233C5829BED9AEC99E582984045
:100213000CF582EE9BFEED9AFDEC99FC0FD5F0D622
:10022300E4CEFBE4CDFAE4CCF9A88222B800C1B94C
:100233000059BA002DEC8BF084CFCECDFCE5F0CB8A
:10024300F97818EF2FFFEE33FEED33FDEC33FCEBC3
:1002530033FB10D703994004EB99FB0FD8E5E4F97E
:10026300FA227818EF2FFFEE33FEED33FDEC33FC6B
:10027300C933C910D7059BE99A4007EC9BFCE99A5F
:10028300F90FD8E0E4C9FAE4CCFB2275F010EF2FA4
:10029300FFEE33FEED33FDCC33CCC833C810D707A4
:1002A3009BEC9AE899400AED9BFDEC9AFCE899F8DF
:0E02B3000FD5F0DAE4CDFBE4CCFAE4C8F92272
:00000001FF
