:100A2900FEFDFBF7EFDFBF7F3F065B4F666D7D077E
:080A39007F6F777C395E797153
:020A4100C18072
:100A0B00D3EF9400EE940040147D5A7C00ED1D70E2
:0D0A1B00011CED4C70F7EF1F70E61E80E32C
:010A280022AB
:10099A00E4FBEBC3940874809480500DEB25E024AB
:1009AA0008F8E4F608F60B80E9438801D2A8D2AF2A
:1009BA00E4FBEBFF7E00C394087480948050F1E45A
:1009CA00F580C374079FFFE49EFE74292FF5827495
:1009DA000A3EF583E493F580D2A7C2A7EB25E0246B
:1009EA0008F8E6FE08E62431F582740A3EF583E447
:1009FA0093F580D2A6C2A67F027E00120A0B0B8054
:010A0A00B13A
:03000300020917D8
:10091700C0E0C0F0C0D075D000C000C002C003C0A6
:0709270004C005C006C00773
:10092E00B2003000520509E50970020508E4FBFA31
:10093E00EB25E02408F8E6FE08E6C3940AEE648090
:10094E0094804033EB25E0240AF80806E61870017F
:10095E0006EB25E02408F8C000E6FE08E6FF7C0062
:10096E007D0A12088CD000A60408A6050BBB000158
:07097E000AEB64074A70B99F
:10098500D007D006D005D004D003D002D000D0D0F7
:05099500D0F0D0E032BB
:03000000020800F3
:0C080000787FE4F6D8FD758120020847DF
:10088C00C2D5EC30E709B2D5E4C39DFDE49CFCEE87
:10089C0030E715B2D5E4C39FFFE49EFE1208C2C335
:1008AC00E49DFDE49CFC80031208C230D507C3E430
:0608BC009FFFE49EFE22F6
:10080C0002099AE493A3F8E493A34003F68001F25F
:10081C0008DFF48029E493A3F85407240CC8C333ED
:10082C00C4540F4420C8834004F456800146F6DFBC
:10083C00E4800B0102040810204080900A41E47E01
:10084C00019360BCA3FF543F30E509541FFEE493B1
:10085C00A360010ECF54C025E060A840B8E493A378
:10086C00FAE493A3F8E493A3C8C582C8CAC583CAA3
:10087C00F0A3C8C582C8CAC583CADFE9DEE780BE5B
:010A430000B2
:1008C200BC000BBE0029EF8DF084FFADF022E4CC1A
:1008D200F875F008EF2FFFEE33FEEC33FCEE9DECE3
:1008E200984005FCEE9DFE0FD5F0E9E4CEFD22ED29
:1008F200F8F5F0EE8420D21CFEADF075F008EF2F73
:10090200FFED33FD4007985006D5F0F222C398FD63
:050912000FD5F0EA2200
:00000001FF
