:030000000217D014
:0C17D000787FE4F6D8FD758166021817DA
:101A9D00C291D292007580FF00D29000AF8000C23B
:051AAD0090EF5480FFE2
:011AB2002211
:101A6700AE07121A9DEF70FAC291C29200AF068FAD
:0B1A77008000D2900000C2900000220E
:101A8200AE07121A9DEF70FAD291C29200AF068F82
:0B1A92008000D2900000C290000022F3
:101A49007F38121A677F38121A677F38121A677F30
:0E1A59000C121A677F01121A677F06021A67C5
:0B147B009000F3EBF0A3EAF0A3E9F00F
:10148600E4FD7F80121A679000F3E0FBA3E0FAA365
:10149600E0F9EDFF3395E08F82F583120BA8FF602C
:1014A60017EDFB3395E0FAC3EB9410EA6480948061
:1014B6005006121A820D80CFEDFF3395E0FEC3EF82
:1014C6009410EE6480948050087F20121A820D805A
:1014D600E7E4FD7FC0121A679000F3E0FBA3E0FA91
:1014E600A3E0F9EDFF3395E08F82F583120BA86038
:1014F6002DED3395E0FEC3EF9410EE64809480509A
:101506001D9000F6E0FBA3E0FAA3E0F9ED3395E0C9
:101516008F82F583120BA8FF121A820D80BAEDFF97
:101526003395E0FEC3EF9410EE6480948050087FFC
:0715360020121A820D80E76C
:01153D00228B
:10135600410010004E0000000000000000000400E4
:1013660001000107B2035F0100D703640100E5C174
:101376000041000E0041000F07C1825100114C418F
:101386005354205550444154452054494D4500512D
:1013960000222A2A2A2A2D2A2A2D2A2A202A2A3ACD
:1013A6002A2A005100442020204C49474854204D09
:1013B6004F44452020200060330077202020202045
:1013C60020204F666620202020202000202020207C
:1013D6002020204F6E2020202020202000202020AA
:1013E6002020204175746F202020202020005100ED
:1013F600332020484F55524C59204348494D4520EB
:10140600200060220055202020202020204F6666E4
:1014160020202020202000202020202020204F6E69
:1014260020202020202020005500AA53554E4D4F45
:101436004E545545574544544855465249534154D0
:101446005800BF001F001C001F001E001F001E00CA
:101456001F001F001E001F001E001FC101C103C187
:10146600040126000227000001210001220001627A
:04147600000163000E
:041A25007F147E00AC
:101A2900D3EF9400EE6480948040147D6E7C00EDC9
:0F1A39001D70011CED4C70F7EF1F70E41E80E173
:011A4800227B
:1000160078297620900010E0FB3395E0FAEB640136
:100026004A700330011790000CE0FEA3E0FF7C034A
:100036007DE8120C3CEF2430FFE43E80027F2078FE
:100046002AA607EB64014A700330012490000CE0F5
:10005600FEA3E0FF7C037DE8120C3C7E007F64CFAC
:10006600CDCFCECCCE120C3CEF2430FFE43E800246
:100076007F20782BA607900010E0FF3395E0FEEF77
:1000860064014E700330012490000CE0FEA3E0FFF3
:100096007C007D64120C3C7E007F0ACFCDCFCECC97
:1000A600CE120C3CEF2430FFE43E80027F20782CF9
:1000B600A607900010E0FB3395E0FAEB64014A7066
:1000C6000330011790000CE0FEA3E0FF7C007D0AE0
:1000D600120C3CED2430FFE43C80027F20782DA6F4
:1000E6000708762DEB64024A700330011790000A68
:1000F600E0FEA3E0FF7C007D0A120C3CEF2430FFFB
:10010600E43E80027F20782FA607900010E0FF33A0
:1001160095E0FEEF64024E700330011790000AE08E
:10012600FEA3E0FF7C007D0A120C3CED2430FFE4C8
:100136003C80027F207830A60708762D900010E0DC
:10014600FB3395E0FAEB64034A7003300117900025
:1001560008E0FEA3E0FF7C007D0A120C3CEF243091
:10016600FFE43E80027F207832A607EB64034A70E4
:1001760003300117900008E0FEA3E0FF7C007D0A33
:10018600120C3CED2430FFE43C80027F207833A63D
:1001960007087620900010E0FF3395E0FEEF640438
:1001A6004E700330011D900006E0FEA3E09000AA09
:1001B60075F003120DA6EE75F003A42583F583E012
:1001C600FF80027F207835A607900010E0FF339568
:1001D600E0FEEF64044E700330011D900006E0FC63
:1001E600A3E09000AB75F003120DA6EC75F003A426
:1001F6002583F583E0FD80027D207836A605EF6431
:10020600044E700330011D900006E0FEA3E090004E
:10021600AC75F003120DA6EE75F003A42583F583E5
:10022600E0FF80027F207837A607087620783A76A6
:1002360020087620087620087620900010E0FF330C
:1002460095E0FEEF64054E7003300117900004E060
:10025600FEA3E0FF7C007D0A120C3CEF2430FFE495
:100266003E80027F20783EA607900010E0FB339583
:10027600E0FAEB64054A7003300117900004E0FED3
:10028600A3E0FF7C007D0A120C3CED2430FFE43C29
:1002960080027F20783FA607EB4A70033001047F77
:1002A6003A80027F207840A607900010E0FF339541
:1002B600E0FEEF64064E7003300117900002E0FE88
:1002C600A3E0FF7C007D0A120C3CEF2430FFE43EE5
:1002D60080027F207841A607900010E0FB3395E06E
:1002E600FAEB64064A7003300117900002E0FEA3A1
:1002F600E0FF7C007D0A120C3CED2430FFE43C80DC
:10030600027F207842A607EB4A70033001047F3A49
:1003160080027F207843A607900010E0FF3395E027
:10032600FEEF64074E7003300117900000E0FEA355
:10033600E0FF7C007D0A120C3CEF2430FFE43E8097
:10034600027F207844A607900010E0FF3395E0FE78
:10035600EF64074E7003300118900000E0FEA3E042
:10036600FF7C007D0A120C3CED2430FFE43CFE804D
:10037600047E007F207845A60708762008762008A8
:1003860076200876209000F6E4F0A37400F0A374BB
:0B0396003AF07B007A00792902147B0A
:10094800785F860308E6FA08E6F9120C72FFAEF043
:1009580064014E600FEF64154E6009EF64294E6024
:1009680003020BA6EF64294E6003020B1C785F8616
:100978000308E6FA08E6F9E4F5F0120D5A785F86FE
:100988000308E6FA08E6F9900002E475F001120D92
:100998000D900002120C9DC3943CE5F06480948095
:1009A800401D785F860308E6FA08E6F9900002E43D
:1009B800F5F0120D79900004E475F001120D0D7830
:1009C8005F860308E6FA08E6F9900004120C9DC356
:1009D8009418E5F064809480403A900004E4F5F0BF
:1009E800120D79900008E475F001120D0D900006C3
:1009F800120C9D2401FFE435F0FE7C007D07120CEB
:100A08003C785F860308E6FA08E6F9900006EC8D64
:100A1800F0120D79785F860308E6FA08E6F9900087
:100A28000A120C9D640245F0705390000C120C9D44
:100A3800FBAAF07C007D04FFAE02120C3CED4C706A
:100A48000EFC7D64AF03AE02120C3CED4C701E78B8
:100A58005F860308E6FA08E6F990000C120C9DFF81
:100A6800AEF07C017D90120C3CED4C70067E007F50
:100A78001D80047E007F1C9000F9EE8029785F8637
:100A88000308E6FA08E6F990000A120C9D25E0FF33
:100A9800E5F033FE74BD2FF58274003EF583E0FF68
:100AA800A3E09000F9CFF0A3EFF0785F860308E6A3
:100AB800FA08E6F9900008120C9DFFC39000FAE0CE
:100AC8009FE5F06480F89000F9E0648098501490F5
:100AD8000008E475F001120D7990000AE475F00140
:100AE800120D0D785F860308E6FA08E6F990000A09
:100AF800120C9DD3940CE5F06480948040279000FC
:100B08000AE475F001120D7990000CE475F00112F9
:100B18000D0D8011785F860308E6FA08E6F9E4759A
:100B2800F013120CD5785F860308E6FA08E6F91286
:100B38000C72FF900000E5F0F0A3EFF090000212B5
:100B48000C9DFF900002E5F0F0A3EFF09000041276
:100B58000C9DFF900004E5F0F0A3EFF09000061262
:100B68000C9DFF900006E5F0F0A3EFF0900008124E
:100B78000C9DFF900008E5F0F0A3EFF090000A123A
:100B88000C9DFF90000AE5F0F0A3EFF090000C1226
:0F0B98000C9DFF90000CE5F0F0A3EFF0D322C30B
:010BA700222B
:1019FB0090000EE0FF3395E0FEEF64014E7010A3F4
:101A0B00E0FD1392A7EDA2E192A6A2E292A522EF2E
:0A1A1B004E7006C2A7C2A6C2A522A3
:1015FB00900010E024F8601114603F14605A240A24
:10160B00705F9000107401F022A202E4FE33FF7CA5
:10161B00007D11120BD574552FF974003EFA900012
:10162B00F67401F0A3EAF0A3E9F07B017A007933B9
:10163B0012147B9000107409F0229000F67401F0E4
:10164B00A37400F0A37422F07B017A0079111214B9
:10165B007B900010740AF022120016E4900010F038
:10166B002290000EE0FF3395E0FE7C007D11120B03
:10167B00D574772FF974003EFA9000F67401F0A33D
:10168B00EAF0A3E9F07B017A00794412147B900015
:05169B00107408F022AC
:100FD100900010E014B4090040030211D3900FEC0B
:100FE10075F003A4C58325F0C583730210070210B1
:100FF1005D02108C0210D20210FA0211220211506D
:1010010002115F0211A7C2AF90000DE004F070065B
:1010110090000CE004F090000CE0FAA3E0FB7C00EF
:101021007D04FFAE02120C3CED4C700EFC7D64AFF2
:1010310003AE02120C3CED4C701390000CE0FEA3C9
:10104100E0FF7C017D90120C3CED4C70067E007F30
:101051001D80047E007F1C9000C18028C2AF9000DB
:101061000AE0FEA3E0FFC3940CEE64809480400A82
:101071007C007D017E007F018007EF2401FFE43EBB
:10108100FE90000AEEF0A3EF02115890000BE0254C
:10109100E0FF90000AE033FE74BD2FF58274003E3C
:1010A100F583E0FEA3E0FF900008E0FCA3E0FDC3B0
:1010B1009FEE6480F8EC64809840067E007F01809A
:1010C10007ED2401FFE43CFE900008EEF0A3EFF0F1
:1010D10022900006E0FEA3E0FFC39406EE64809434
:1010E10080400A7C007D007E007F008007EF2401A4
:1010F100FFE43EFE900006804E900004E0FEA3E077
:10110100FFC39417EE64809480400A7C007D007ECA
:10111100007F008007EF2401FFE43EFE9000048081
:1011210026900002E0FEA3E0FFC3943BEE648094AE
:1011310080400A7C007D007E007F008007EF240153
:10114100FFE43EFE900002EEF0A3EFF0020016C2B3
:10115100AFE4900000F0A3F0120016D2AF2290008D
:101161000EE0FF3395E0FEEF2401FFE43EFE7C003C
:101171007D03120C3CEDF01219FB90000EE0FF33E1
:1011810095E0FE7C007D11120BD574772FF9740068
:101191003EFA9000F67401F0A3EAF0A3E9F07B01B6
:1011A1007A0079448029B202A202E4FE33FF7C0076
:1011B1007D11120BD574552FF974003EFA9000F68B
:1011C1007401F0A3EAF0A3E9F07B017A007933120C
:0311D100147B226A
:100DC800900010E014B409004003020FD0900DE326
:100DD80075F003A4C58325F0C58373020DFE020ECA
:100DE80051020E81020EC2020EEB020F14020F43D3
:100DF800020F52020FA4C2AF90000DE024FFF09042
:100E0800000CE034FFF0E0FAA3E0FB7C007D04FF77
:100E1800AE02120C3CED4C700EFC7D64AF03AE02CA
:100E2800120C3CED4C701390000CE0FEA3E0FF7C2C
:100E3800017D90120C3CED4C70067E007F1D8004F5
:100E48007E007F1C9000C18029C2AF90000AE0FE9E
:100E5800A3E0FFD39401EE64809480500A7C007D67
:100E68000C7E007F0C8008EF24FFFFEE34FFFE901D
:100E7800000AEEF0A3EF020F4B900008E0FCA3E09D
:100E8800FDD39401EC64809480501E90000BE02503
:100E9800E0FF90000AE033FE74BD2FF58274003E37
:100EA800F583E0FEA3E0FF8008ED24FFFFEC34FFAC
:100EB800FE900008EEF0A3EFF022900006E0FEA3FB
:100EC800E0FFD39400EE64809480500A7C007D0695
:100ED8007E007F068008EF24FFFFEE34FFFE9000BF
:100EE800068050900004E0FEA3E0FFD39400EE6477
:100EF800809480500A7C007D177E007F178008EF61
:100F080024FFFFEE34FFFE9000048027900002E0EB
:100F1800FEA3E0FFD39400EE64809480500A7C0026
:100F28007D3B7E007F3B8008EF24FFFFEE34FFFE11
:100F3800900002EEF0A3EFF0020016C2AFE49000BA
:100F480000F0A3F0120016D2AF2290000EE0FFFDD1
:100F58003395E0FCD3ED9400EC6480948050067ED9
:100F6800027F028003EF14FF90000EEFF01219FBCE
:100F780090000EE0FF3395E0FE7C007D11120BD54A
:100F880074772FF974003EFA9000F67401F0A3EA22
:100F9800F0A3E9F07B017A0079448029B202A20229
:100FA800E4FE33FF7C007D11120BD574552FF974C4
:100FB800003EFA9000F67401F0A3EAF0A3E9F07B92
:090FC800017A00793312147B2236
:1016A000900010E014B4080040030217379016BBF6
:1016B00075F003A4C58325F0C583730216D3021603
:1016C000DA0216E10216E80216EF0216F60216FD1D
:1016D0000217049000107407F0229000107401F0BB
:1016E000229000107402F0229000107403F02290F7
:1016F00000107404F0229000107405F02290001085
:101700007406F02290000EE0FF3395E0FEEF6401D6
:101710004E7024A3E0FFFD3395E0FCD3ED9401EC83
:101720006480948050067E077F078003EF14FF904B
:08173000000FEFF01219FB227B
:10173800900010E014B4080040030217CF9017532C
:1017480075F003A4C58325F0C5837302176B0217D0
:101758007202177902178002178702178E021795EF
:1017680002179C9000107402F0229000107403F08D
:10177800229000107404F0229000107405F022905A
:1017880000107406F0229000107407F022900010E8
:101798007401F02290000EE0FF3395E0FEEF640143
:1017A8004E7024A3E0FFFD3395E0FCC3ED9407ECF5
:1017B8006480948040067E017F018003EF04FF90DF
:0817C800000FEFF01219FB22E3
:1011D40020010302131A900001E004F0700690004D
:1011E40000E004F0C3900001E0943C900000E0644F
:1011F4008094804012E4F0A3F0900003E004F070C7
:1012040006900002E004F0C3900003E0943C9000D8
:1012140002E0648094804012E4F0A3F0900005E0C2
:1012240004F07006900004E004F0C3900005E0941C
:1012340018900004E064809480402CE4F0A3F090C3
:101244000009E004F07006900008E004F090000744
:10125400E02401FF900006E03400FE7C007D0712CC
:101264000C3CECF0A3EDF090000BE025E0FF9000C7
:101274000AE033FE74BD2FF58274003EF583E0FE70
:10128400A3E0FFD3900009E09FEE6480F89000088B
:10129400E06480984013E4F0A304F090000BE004B1
:1012A400F0700690000AE004F0D390000BE0940C78
:1012B40090000AE0648094804013E4F0A304F0906A
:1012C400000DE004F0700690000CE004F090000CB7
:1012D400E0FAA3E0FB7C007D04FFAE02120C3CEDBF
:1012E4004C700EFC7D64AF03AE02120C3CED4C70EE
:1012F4001390000CE0FEA3E0FF7C017D90120C3CF7
:10130400ED4C70067E007F1D80047E007F1C9000E3
:10131400C1EEF0A3EFF0300217900002E07002A3D8
:10132400E0700D900000E07002A3E07003D3800130
:10133400C392A0900010E0FF3395E0FEC364809454
:1013440080400ED3EF9407EE648094805003120023
:0213540016225F
:10198300EFFD7C00D394117480948050037FFF2279
:10199300D3ED942EEC6480948050037F0022EFFDFE
:1019A3007C00D394487480948050037F0122D3ED4C
:1019B300945FEC6480948050037F0222D3EF947889
:0C19C3007480948050037F03227FFE227A
:1003A1007B017A007863E62BFFE43AFE7C007D1442
:1003B100120C3C744B2DF8E6FFF46005EF64FE70FF
:1003C10002C3220BBB00010AEB64144A70D67863A6
:1003D100E62401FFE433FE7C007D14120BE7744B2D
:1003E1002DF8E614601714602424027033785F86B8
:1003F1000308E6FA08E6F9E475F001801E785F86E5
:100401000308E6FA08E6F9E475F015800E785F86D0
:100411000308E6FA08E6F9E475F029120D5A80029C
:10042100C3227863E62406FFE433FE7C007D1412C8
:100431000BE7744B2DF8E675F004A4FBAAF0786382
:10044100E62405FFE433FE7C007D14120BE7744BB8
:100451002DF8E675F010A42BFBE5F03AFA7863E687
:100461002407FFE433FE7C007D14120BE7744B2D4F
:10047100F8E67E002BFFEE3AFE785F860308E6FA87
:1004810008E6F9900002EE8FF0120D797863E62408
:1004910003FFE433FE7C007D14120BE7744B2DF84F
:1004A100E675F004A4FBAAF07863E62404FFE433C4
:1004B100FE7C007D14120BE7744B2DF8E67E002BB9
:1004C100FBEE3AFA7863E6240AFFEE33FE7C007D08
:1004D10014120BE7744B2DF8E66004640170067E7C
:1004E100007F0080047E007F0CEB2FFFEA3EFE7848
:1004F1005F860308E6FA08E6F9900004EE8FF01231
:100501000D797863E62408FFE433FE7C007D141244
:100511000BE7744B2DF8E675F004A4FBAAF07863A1
:10052100E62409FFE433FE7C007D14120BE7744BD3
:100531002DF8E67E002BFFEE3AFE785F860308E693
:10054100FA08E6F9900006EE8FF0120D797863E66D
:10055100240CFFE433FE7C007D14120BE7744B2D59
:10056100F8E675F004A4FBAAF07863E6240BFFE437
:1005710033FE7C007D14120BE7744B2DF8E675F009
:1005810010A42BFBE5F03AFA7863E6240DFFE4337F
:10059100FE7C007D14120BE7744B2DF8E67E002BD8
:1005A100FFEE3AFE785F860308E6FA08E6F9900066
:1005B10008EE8FF0120D797863E6240EFFE433FE26
:1005C1007C007D14120BE7744B2DF8E675F004A442
:1005D100FBAAF07863E6240FFFE433FE7C007D1470
:1005E100120BE7744B2DF8E67E002BFFEE3AFE78F6
:1005F1005F860308E6FA08E6F990000AEE8FF0122A
:100601000D797863E62411FFE433FE7C007D14123A
:100611000BE7744B2DF8E675F004A4FBAAF07863A0
:10062100E62410FFE433FE7C007D14120BE7744BCB
:100631002DF8E675F010A42BFBE5F03AFA7863E6A5
:100641002412FFE433FE7C007D14120BE7744B2D62
:10065100F8E67E002BFFEE3ACF24D0CF3407FE78A8
:100661005F860308E6FA08E6F990000CEE8FF012B7
:030671000D79D32D
:010674002263
:100675007864860308E6FA08E6F9120C72642945DF
:10068500F06003020898785F860308E6FA08E6F941
:10069500120C72640145F0600302089878648603C1
:1006A50008E6FA08E6F9900002E475F001120D0D6E
:1006B500900002120C9DC3943CE5F0648094804048
:1006C5001D7864860308E6FA08E6F9900002E4F569
:1006D500F0120D79900004E475F001120D0D7864A7
:1006E500860308E6FA08E6F9900004120C9DC39407
:1006F50018E5F064809480403A900004E4F5F01227
:100705000D79900008E475F001120D0D90000612A8
:100715000C9D2401FFE435F0FE7C007D07120C3CA6
:100725007864860308E6FA08E6F9900006EC8DF091
:10073500120D797864860308E6FA08E6F990000A4E
:10074500120C9D640245F0705390000C120C9DFB39
:10075500AAF07C007D04FFAE02120C3CED4C700E3D
:10076500FC7D64AF03AE02120C3CED4C701E786448
:10077500860308E6FA08E6F990000C120C9DFFAE18
:10078500F07C017D90120C3CED4C70067E007F1DC7
:1007950080047E007F1C9000FBEE80297864860330
:1007A50008E6FA08E6F990000A120C9D25E0FFE537
:1007B500F033FE74BD2FF58274003EF583E0FFA390
:1007C500E09000FBCFF0A3EFF07864860308E6FA2B
:1007D50008E6F9900008120C9DFFC39000FCE09F0D
:1007E500E5F06480F89000FBE06480985014900078
:1007F50008E475F001120D7990000AE475F0011214
:100805000D0D7864860308E6FA08E6F990000A12E9
:100815000C9DD3940CE5F064809480401490000AFC
:10082500E475F001120D7990000CE475F001120DDC
:100835000D9000F9E4F0A304F09000F9E0FEA3E0C8
:10084500FFC39407EE648094805046EF25E0FFEEE9
:1008550033FE785F860308E6FA08E6F98F828E8311
:10086500120C9DFDACF07864860308E6FA08E6F9FB
:100875008F828E83120C9D6D7003E5F06C6002C350
:10088500229000FAE004F070B09000F9E004F080E6
:10089500A8D3227864860308E6FA08E6F9120C72F2
:1008A500641545F07013785F860308E6FA08E6F9E3
:1008B500120C72642945F060267864860308E6FA0E
:1008C50008E6F9120C72640145F07075785F8603CD
:1008D50008E6FA08E6F9120C72641545F0706290A4
:1008E50000F9E4F0A304F09000F9E0FEA3E0FFC3F3
:1008F5009407EE648094805046EF25E0FFEE33FECA
:10090500785F860308E6FA08E6F98F828E83120C73
:100915009DFDACF07864860308E6FA08E6F98F8257
:100925008E83120C9D6D7003E5F06C6002C32290FE
:1009350000FAE004F070B09000F9E004F080A8D36C
:0209450022C3CB
:01094700228D
:10185C007822E6F5993099FDC2991203A1505B7874
:10186C0022E670028013120675504F7822E6C3945C
:10187C0004748094804002D322785F860308E6FAD1
:10188C0008E6F97823A60308A60208A60178648660
:10189C000308E6FA08E6F9785FA60308A60208A68C
:1018AC00017823860308E6FA08E6F97864A60308AB
:1018BC00A60208A601782206C322E47822F6C322E7
:1019CF001219FBC2A0C2B4121A49759850E4F587D8
:1019DF00758920438805758BFD758DFDD28E75B881
:0C19EF0001D28AD2AAD288D2A8D2AF229C
:1018CC001219CF20970D1215FB8003209745121A81
:1018DC002580F820950D120FD18003209535121A12
:1018EC002580F820940D120DC88003209425121A1F
:1018FC002580F820930D1216A08003209315121A40
:10190C002580F820960D1217388003209605121AA0
:0D191C002580F83000AD1211D4C20080A665
:03000300021929B6
:10192900C0E0C0D075D000C000C006C0077827E667
:10193900FE08E6FFC394FFEE9400400ED3EF940136
:10194900EE940150057821068004782176007821EB
:10195900E6C3940374809480400E78267600D20101
:1019690078217600C2A8D20378277600087600D0BD
:0A19790007D006D000D0D0D0E03235
:0300130002153E95
:10153E00C0E0C0F0C083C082C0D075D000C000C073
:10154E0001C002C003C004C005C006C0077826064D
:10155E0030031520041A20B217E6D39480748094B9
:10156E0080500D7862068008782806E6187001060D
:10157E007826E6C394807480948040567600B2013B
:10158E00D20020044D30034A3001477862E6FF1244
:10159E00198308E6FE244BF8A607744B2EF8E6F4E2
:1015AE00701812185C5013120948500ED2B4D2049F
:1015BE00786376007822760080147863E62401FF43
:1015CE00E433FE7C007D14120BE77863A605786287
:1015DE007600D007D006D005D004D003D002D001BB
:0D15EE00D000D0D0D082D083D0F0D0E03239
:1017DC000218CCE493A3F8E493A34003F68001F23F
:1017EC0008DFF48029E493A3F85407240CC8C3330E
:1017FC00C4540F4420C8834004F456800146F6DFDD
:10180C00E4800B0102040810204080901356E47E03
:10181C00019360BCA3FF543F30E509541FFEE493D1
:10182C00A360010ECF54C025E060A840B8E493A398
:10183C00FAE493A3F8E493A3C8C582C8CAC583CAC3
:10184C00F0A3C8C582C8CAC583CADFE9DEE780BE7B
:01147A000071
:100BA800BB010CE58229F582E5833AF583E0225002
:100BB80006E92582F8E622BBFE06E92582F8E2224C
:0D0BC800E58229F582E5833AF583E4932266
:100BD500EF8DF0A4A8F0CF8CF0A428CE8DF0A42E34
:020BE500FE22EE
:100BE700BC000BBE0029EF8DF084FFADF022E4CCF2
:100BF700F875F008EF2FFFEE33FEEC33FCEE9DECBB
:100C0700984005FCEE9DFE0FD5F0E9E4CEFD22ED00
:100C1700F8F5F0EE8420D21CFEADF075F008EF2F4A
:100C2700FFED33FD4007985006D5F0F222C398FD3B
:050C37000FD5F0EA22D8
:100C3C00C2D5EC30E709B2D5E4C39DFDE49CFCEED3
:100C4C0030E715B2D5E4C39FFFE49EFE120BE7C359
:100C5C00E49DFDE49CFC8003120BE730D507C3E454
:060C6C009FFFE49EFE2242
:100C7200BB010A89828A83E0F5F0A3E0225006874D
:100C8200F009E71922BBFE07E3F5F009E31922890F
:0B0C9200828A83E493F5F07401932242
:100C9D00BB0110E58229F582E5833AF583E0F5F095
:100CAD00A3E0225009E92582F886F008E622BBFE72
:100CBD000AE92582F8E2F5F008E222E5832AF583B8
:080CCD00E993F5F0A3E993227D
:100CD500BB010789828A83020DB2500B09C5F02733
:100CE500F7C5F01937F722BBFE0D09F8E325F0F338
:100CF500C5F019E338F322F889828A8374019325B4
:080D0500F0C5F0F8E493382278
:100D0D00BB010DC58229C582C5833AC583020DB2CB
:100D1D005011C58229F808E5F026F618F5F0E582A0
:100D2D0036F622BBFE11C58229F808E225F0F5F052
:100D3D00F218E23582F222F8E58229F582E5832A5E
:0D0D4D00F58374019325F0F5F0E49338224E
:100D5A00BB010A89828A83F0E5F0A3F0225006F7E4
:0F0D6A0009A7F01922BBFE06F3E5F009F31922E1
:100D7900F8BB0111E58229F582E5833AF583E8F0AC
:100D8900E5F0A3F0225009E92582C8F608A6F02269
:0D0D9900BBFE09E92582C8F2E5F008F22250
:0C0DA600A42582F582E5F03583F5832258
:100DB200C5F0F8A3E028F0C5F0F8E58215827002CC
:060DC2001583E038F02269
:00000001FF
