:0300000002140CDB
:0C140C00787FE4F6D8FD75817602145359
:10002600343434EBEBEB3434346F6F6F3535356B7A
:100036006B6B3434347B7B7BB4B4B46B6B6B36360E
:10004600366B6B6B7474746B6B6B3C3C3C6B6B6BA1
:10005600FFFFFFFFFFFFFFFFFFFFFFFFFBFFFFFFAE
:10006600FFDDFBFFFFFFFFFDFBFFFFFFFFFDFBFFCC
:10007600FFFFFFFDFBFFFFFFFFDDFFFFFFFFFFFFB2
:10008600FFFFFFFFFFFFFFFFFFFFFFFFFFFFFFFF7A
:10009600FFDFFBFFFFFFFFDFFFFFFFFFFFDFFFFFCE
:1000A600FFFFFFDFFBFFFFFFFFDDFFFFFFFFFFFFA0
:1000B600FFFFFFFFFFFFFFFFFFFFFFFFFBFFFFFF4E
:1000C600FFDDFFFFFFFFFFFDFBFFFFFFFFDDFBFF88
:1000D600FFFFFFFFFBFFFFFFFFDDFFFFFFFFFFFF50
:1000E600FFFFFFFFFFFFFFFFFFFFFFFFFFCFFFFF4A
:1000F600F7FFFFEFFFFFF7FFFFEFFFFFF7FFFFEF52
:10010600FFFFF7FFFFCFFFFFF7FFFFFFFFFFFFFF39
:10011600FFFFFFFFFFFFFFFFFFFFFFFFFFDFFFFF09
:10012600FFFFFFDFFFFFF7FFFFDFFFFFFFFFFFDF41
:10013600FFFFFFFFFFCFFFFFF7FFFFFFFFFFFFFF01
:10014600FFFFFFFFFFFFFFFFFFFFFFFFFFCFFFFFE9
:10015600F7FFFFEFFFFFFFFFFFCFFFFFF7FFFFFFF9
:10016600FFFFF7FFFFCFFFFFF7FFFFFFFFFFFFFFD9
:10017600FFFFFFFFFFFFFFFFFFFFFFFFFFCFFFFFB9
:10018600F7FFFFEFFFFFFFFFFFCFFFFFF7FFFFEFD9
:10019600FFFFFFFFFFCFFFFFF7FFFFFFFFFFFFFFA1
:1001A600FFFFFFFFFFFFFFFFFFFFFFFFFFEFFFFF69
:1001B600F7FFFFEFFFFFF7FFFFCFFFFFF7FFFFEFB1
:1001C600FFFFFFFFFFEFFFFFFFFFFFFFFFFFFFFF49
:1001D600FFFFFFFFFFFFFFFFFFFFFFFFFFCFFFFF59
:1001E600F7FFFFFFFFFFF7FFFFCFFFFFF7FFFFEF71
:1001F600FFFFFFFFFFCFFFFFF7FFFFFFFFFFFFFF41
:10020600FFFFFFFFFFFFFFFFFFFFFFFFFFCFFFFF28
:10021600F7FFFFFFFFFFF7FFFFCFFFFFF7FFFFEF40
:10022600FFFFF7FFFFCFFFFFF7FFFFFFFFFFFFFF18
:10023600FFFFFFFFFFFFFFFFFFFFFFFFFFCFFFFFF8
:10024600F7FFFFEFFFFFFFFFFFEFFFFFFFFFFFEFF0
:10025600FFFFFFFFFFEFFFFFFFFFFFFFFFFFFFFFB8
:10026600FFFFFFFFFFFFFFFFFFFFFFFFFFCFFFFFC8
:10027600F7FFFFEFFFFFF7FFFFCFFFFFF7FFFFEFF0
:10028600FFFFF7FFFFCFFFFFF7FFFFFFFFFFFFFFB8
:10029600FFFFFFFFFFFFFFFFFFFFFFFFFFCFFFFF98
:1002A600F7FFFFEFFFFFF7FFFFCFFFFFF7FFFFEFC0
:1002B600FFFFFFFFFFCFFFFFF7FFFFFFFFFFFFFF80
:1002C600FFFFFFFFFFFFFFFFFFFFFFFFFFFFFFF740
:1002D600FCFFFFFFFFF7FDFFFFFFFFF7FDFFFFFF3F
:1002E600FFF7FDFFFFFFFFF7FCFFFFFFFFFFFFFF2D
:1002F600FFFFFFFFFFFFFFFFFFFFFFFFFFFFFFFF08
:10030600FEFFFFFFFFFFFCFFFFFFFFFFFEFFFFFFFC
:10031600FFFFFEFFFFFFFFF7FCFFFFFFFFFFFFFFF3
:10032600FFFFFFFFFFFFFFFFFFFFFFFFFFFFFFF7DF
:10033600FCFFFFFFFFF7FFFFFFFFFFF7FCFFFFFFDD
:10034600FFFFFDFFFFFFFFF7FCFFFFFFFFFFFFFFC4
:10035600FFFFFFFFFFFFFFFFFFFFFFFFFFFFFFF7AF
:10036600FCFFFFFFFFF7FFFFFFFFFFF7FCFFFFFFAD
:10037600FFF7FFFFFFFFFFF7FCFFFFFFFFFFFFFF9A
:10038600FFFFFFFFFFFFFFFFFFFFFFFFFFFFFFF77F
:10039600FDFFFFFFFFF7FDFFFFFFFFF7FCFFFFFF7E
:1003A600FFF7FFFFFFFFFFF7FFFFFFFFFFFFFFFF67
:1003B600FFFFFFFFFFFFFFFFFFFFFFFFFFFFFFF74F
:1003C600FCFFFFFFFFFFFDFFFFFFFFF7FCFFFFFF47
:1003D600FFF7FFFFFFFFFFF7FCFFFFFFFFFFFFFF3A
:1003E600FFFFFFFFFFFFFFFFFFFFFFFFFFFFEBBF6B
:1003F600FFFFFFFFEBFFFFFFFFFFEBFFFFFFFFFF2F
:10040600EBFFFFFFFFFFEBBFFFFFFFFFFFFFFFFF5E
:10041600FFFFFFFFFFFFFFFFFFFFFFFFFFFFFFBF26
:10042600FFFFFFFFEFBFFFFFFFFFFFBFFFFFFFFF66
:10043600FFBFFFFFFFFFEBBFFFFFFFFFFFFFFFFF5A
:10044600FFFFFFFFFFFFFFFFFFFFFFFFFFFFEBBF0A
:10045600FFFFFFFFFBFFFFFFFFFFEBBFFFFFFFFFFE
:10046600EFFFFFFFFFFFEBBFFFFFFFFFFFFFFFFFFA
:10047600FFFFFFFFFFFFFFFFFFFFFFFFFFFFEBBFDA
:10048600FFFFFFFFFBFFFFFFFFFFEBBFFFFFFFFFCE
:10049600FBFFFFFFFFFFEBBFFFFFFFFFFFFFFFFFBE
:1004A600FFFFFFFFFFFFFFFFFFFFFFFFFFFFEBFF6A
:1004B600FFFFFFFFEBFFFFFFFFFFEBBFFFFFFFFFAE
:1004C600FBFFFFFFFFFFFBFFFFFFFFFFFFFFFFFF3E
:1004D600FFFFFFFFFFFFFFFFFFFFFFFFFFFFEBBF7A
:1004E600FFFFFFFFEFFFFFFFFFFFEBBFFFFFFFFF7A
:1004F600FBFFFFFFFFFFEBBFFFFFFFFFFFFFFFFF5E
:10050600FFFFFFFFFFFFFFFFFFFFFFFFFFFFEBBF49
:10051600FFFFFFFFEFFFFFFFFFFFEBBFFFFFFFFF49
:10052600EBFFFFFFFFFFEBBFFFFFFFFFFFFFFFFF3D
:10053600FFFFFFFFFFFFFFFFFFFFFFFFFFFFEBBF19
:10054600FFFFFFFFFBFFFFFFFFFFFBFFFFFFFFFFBD
:10055600FBFFFFFFFFFFFBFFFFFFFFFFFFFFFFFFAD
:10056600FFFFFFFFFFFFFFFFFFFFFFFFFFFFEBBFE9
:10057600FFFFFFFFEBFFFFFFFFFFEBBFFFFFFFFFED
:10058600EBFFFFFFFFFFEBBFFFFFFFFFFFFFFFFFDD
:10059600FFFFFFFFFFFFFFFFFFFFFFFFFFFFEBBFB9
:1005A600FFFFFFFFEBFFFFFFFFFFEBBFFFFFFFFFBD
:1005B600FBFFFFFFFFFFEBBFFFFFFFFFFFFFFFFF9D
:1005C600FFFFFFFFFFFFFFFFFFFFFFFFFFFFFFFF35
:1005D600FFFFFFFFFFFFFFFFFFFFFFFFFFFFFFFF25
:1005E600FFFFFFFFFFFFFFFFFFFFFFFFFFFFFFFF15
:1005F600FFFFFFFFFFFFFFFFFFFFFFFFFFFFFFFF05
:10060600FFFFFFFBFFFFFFFFFFFFFFFFFFFFFFFBFC
:10061600FFFFFFFFFFFFFFFFFFFFFFFFFFFFFFFFE4
:10062600FFFFFFFFFFFFFFFFFFFFFFFFFFFFFFFFD4
:10063600FFFFFFFFFFFFFFFFFFFFFFFFFFFFFFFFC4
:10064600FFFFFFFFFFFBFFFFFFFFFFFFFFFFFFFFB8
:10065600FFFFFFFFFFFFFBFFFFFFFFDDFFFFFFFFCA
:10066600FFBEFFFFFFFFFFBFFBFFFFFFFFDDFFFF3B
:10067600FFFFFFFEFFFFFFFFFFBEFBFFFFFFFFDDEC
:10068600FFFFFFFFFFFFFFFFFFFFFFFFFFFFFFFF74
:10069600FFFFFFDFFFFFDFFFFFDFFFFFDFFFFFDF04
:1006A600FFFFDFFFFFDBFFFFDFFFFFEFFFFF9FFF28
:1006B600FFFFFFFFFFFFFFFFFFFFFFFFFFFFFFFF44
:1006C600FFFFFFFFCFFFFEFFFFFFFFB7FEFFFFFFAE
:1006D600FFBFFEFFFFFFFFBFFEFFFFFFFF9FFEFF07
:1006E600FFFFFFFFFFFFFFFFFFFFFFBEFBFFFFFF59
:1006F600FFBCFFFFFFFFFF9EFFFFFFFFFFBEFFFFE9
:10070600FFFFFFBEFFFFFFFFFFBEFFFFFFFFFFBEB6
:10071600FFFFFFFFFFFFFFFFFFFFFFFFFFFFFFFFE3
:10072600FFFFFFEBFFFFBFFFFFDFFFFFDFFFFFDF87
:10073600FFFFDFFFFFDFFFFFDFFFFFEBFFFFBFFF77
:10074600FFFFFFFFFFFFFFFFFFFFFFFFFFFFFFFFB3
:10075600FFFFFFFFCFFFFEFFFFFFFFB7FEFFFFFF1D
:10076600FFBFFEFFFFFFFFBFFEFFFFFFFF9FFEFF76
:10077600FFFFFFFFFFFFFBFFFFFFFF9CFFFFFFFFEA
:10078600FFDFFFFFFFFFFFDFFFFFFFFFFFDFFFFFD3
:10079600FFFFFFDFFFFFFFFFFFDFFFFFFFFFFFDFC3
:1007A600FFFFFFFFFFFFFFFFFFFFFFFFFFFFFFFF53
:1007B600FFFFFFDFFFFFDFFFFFDFFFFFDFFFFFDFE3
:1007C600FFFFDFFFFFDBFFFFDFFFFFEFFFFF9FFF07
:1007D600FFFFFFFFFFFFFFFFFFFFFFFFFFFFFFFF23
:1007E600FFFFFFFFCFF7FFFFFFFFFFBFFEFFFFFF8C
:1007F600CFB7FEFFFFFFFFFFFEFFFFFFCFD7FFFFD5
:10080600FFFFFFFFFFFFFFFFFFFFFFBEFFFFFFFF33
:10081600FFBEFFFFFFFFFF9EFFFFFFFFFF9EFFFFE5
:10082600FFFFFF9EFFFFFFFFFF9EFBFFFFFFFFFD9A
:10083600FFFFFFFFFFFFFFFFFFFFFFFFFFFFFFFFC2
:10084600FFFFFFEBFFFFBFFFFFDFFFFFDFFFFFCB7A
:10085600FFFF9FFFFFDFFFFFFFFFFFEBFFFFBFFF76
:10086600FFFFFFFFFFFFFFFFFFBFFFFFFFFFFFBF12
:10087600FFFFFFFFDFB7FFFFFFFFEFBFFEFFFFFF3B
:10088600FFBFFEFFFFFFEFBFFEFFFFFFDF97FFFF8C
:10089600FFFFFFFFFFFFFBFFFFFFFF9CFFFFFFFFC9
:1008A600FFDFFFFFFFFFFFDFFFFFFFFFFFDFFFFFB2
:1008B600FFFFFFDFFFFFFFFFFFDFFFFFFFFFFFDFA2
:1008C600FFFFFFFFFFFFFFDFFFFFFFFFFFDFFFFF72
:1008D600FFFFFFDBFFFFBFFFFFCFFFFFDFFFFFDFF6
:1008E600FFFFDFFFFFDFFFFFDFFFFFDFFFFFDFFFB2
:1008F600FFFFFFFFFFFFFFFFFFFFFFFFFFFFFFFF02
:10090600FFFFFFFFFFBFFEFFFFFFFFBFFEFFFFFF73
:10091600FFBFFEFFFFFFEFBFFEFFFFFFDF97FFFFFB
:10092600FFFFFFFFFFFFFBFFFFFFFF9CFFFFFFFF38
:10093600FFBFFFFFFFFFFFBFFBFFFFFFFF9DFFFFA7
:10094600FFFFFFBFFFFFFFFFFFBFFFFFFFFFFFBF71
:10095600FFFFFFFFFFFFFFFFFFFFFFFFFFFFFFFFA1
:10096600FFFFFFDBFFFFBFFFFFCFFFFFDFFFFFDF65
:10097600FFFFFFFFFFDFFFFFFFFFFFDFFFFFFFFFC1
:10098600FFFFFFFFFFFFFFFFDFFFFFFFFFFFFFFF91
:10099600FFFFFFFFDFF7FFFFFFFFDFFFFFFFFFFFA9
:1009A600DFFFFFFFFFFFDFFFFFFFFFFFCFD7FFFFE9
:1009B600FFFFFFFFFFFFFBFFFFFFFFDDFFFFFFFF67
:1009C600FFBEFFFFFFFFFFBFFBFFFFFFFFDDFFFFD8
:1009D600FFFFFFFEFFFFFFFFFFBEFBFFFFFFFFDD89
:1009E600FFFFFFFFFFFFFFFFFFFFFFFFFFFFFFFF11
:1009F600FFFFFFEBFFFFBFFFFFFFFFFFDFFFFFEB89
:100A0600FFFF9FFFFFDFFFFFDFFFFFEBFFFF9FFF04
:100A1600FFFFFFFFFFFFFFFFFFF7FFFFFFFFFFF7F0
:100A2600FFFFFFFFDFF7FEFFFFFFFFF7FFFFFFFF01
:100A3600FFF7FFFFFFFFFFB7FFFFFFFFCFDFFFFF60
:100A4600FFFFFFFFFFFFFFFFFFFFFFFFEFDBCB9F78
:100A5600D5DFEFEBFFBFFEDEEFEBFFBFDDDEEFCB5B
:100A6600FFBFF5DEFBEBFFBFFEBEFFFFFFFFFFFF95
:1016F90001260001630501750B0121000164000148
:101709007600042200000000C103C102C184C100A7
:02171900C1010C
:10165000908000E0900008F0908002E0900009F097
:10166000908004E090000AF0908006E01490000B57
:10167000F0908007E090000CF0908008E090000D62
:10168000F0908009E090000EF0908032E090000F22
:02169000F02246
:10159E0090800BE0FF4480F0121278908000F09063
:1015AE000001121291908002F0900002121291909E
:1015BE008004F090000312129104908006F09000C7
:1015CE0004121291908007F09000051212919080F3
:1015DE0008F0900006121291908009F09000071208
:0B15EE001291908032F090800BEFF023
:0115F90022CF
:08151C008E0C8F0D8C0E8D0F5B
:10152400E4FDEDFF3395E0FEC3EF9410EE64809488
:10153400805017E50C339291E50D25E0F50DE50C8F
:1015440033F50CD292C2920D80D8E4FDEDFF3395B1
:10155400E0FEC3EF9410EE648094805017E50E33E0
:101564009291E50F25E0F50FE50E33F50ED292C208
:10157400920D80D8E4FDEDFF3395E0FEC3EF9410A7
:10158400EE648094805012EA339291EB25E0FBEAFA
:0915940033FAD292C2920D80DDFF
:01159D00222B
:05000600D290C290221F
:0F171C00E5651470097B007A00796612159E222C
:100A7600E4F50AAF0AEF3395E0FEC3EF9408EE649F
:100A860080948040030210C7E4F50BAF0BEF33955B
:100A9600E0FEC3EF9403EE6480948040030210C22C
:100AA600E526147003020BB7147003020C3B147096
:100AB60003020D5C147003020E2C1470030210095D
:100AC600240560030210BD90000AE0FD7804A2E749
:100AD60013D8FBF525ED540FF524900009E0FD78B9
:100AE60004A2E713D8FBF523ED540FF522C2A9EFB4
:100AF60025E0FFEE33FEAD24ED3395E0FC9000E6F5
:100B060075F030ED1212F4EC75F030A42583F58300
:100B1600AD0AED3395E0FC75F006ED1212F4EC75B6
:100B2600F006A42583F583E5822FF582E5833EF55D
:100B360083E493FC740193FDAF0BEF3395E0FEEF76
:100B460025E0FFEE33FEAB25EB3395E0FA90005639
:100B560075F030EB1212F4EA75F030A42583F583B4
:100B6600AB0AEB3395E0FA75F006EB1212F4EA7570
:100B7600F006A42583F583E5822FF582E5833EF50D
:100B860083E4935CFC7401935DFDAF0BEF3395E05A
:100B9600FEEF25E0FFEE33FEA203E4339005C675B3
:100BA600F0301212F4E475F030A42583F583020EBA
:100BB600CE900008E0FF7804A2E713D8FBF523EFF8
:100BC600540FF522C2A9AF0BEF3395E0FEEF25E0F7
:100BD600FFEE33FEAD23ED3395E0FC9002C675F0D3
:100BE60030ED1212F4EC75F030A42583F583AD0ACE
:100BF600ED3395E0FC75F006ED1212F4EC75F00697
:100C0600A42583F583E5822FF582E5833EF583E40B
:100C160093FC740193FDAF0BEF3395E0FEEF25E0F7
:100C2600FFEE33FEA203E4339005C675F0301212D0
:100C3600F4E4020F1690000DE0FF7804A2E713D843
:100C4600FBF525EF540FF52490000CE0FF7804A285
:100C5600E713D8FBF523EF540FF522C2A9AF0BEF2C
:100C66003395E0FEEF25E0FFEE33FEAD24ED339540
:100C7600E0FC9000E675F030ED1212F4EC75F03001
:100C8600A42583F583AD0AED3395E0FC75F006EDFA
:100C96001212F4EC75F006A42583F583E5822FF590
:100CA60082E5833EF583E493FC740193FDAF0BEF7D
:100CB6003395E0FEEF25E0FFEE33FEAB25EB3395F3
:100CC600E0FA90005675F030EB1212F4EA75F03047
:100CD600A42583F583AB0AEB3395E0FA75F006EBB2
:100CE6001212F4EA75F006A42583F583E5822FF542
:100CF60082E5833EF583E4935CFC7401935DFDAF6E
:100D06000BEF3395E0FEEF25E0FFEE33FE9006266F
:100D160075F006EB1212F4EA75F006A42583F58346
:100D2600E5822FF582E5833EF583E4935CFC74014E
:100D3600935DFDAF0BEF3395E0FEEF25E0FFEE335D
:100D4600FEAB23EB3395E0FA9002C675F030EB125A
:100D560012F4EA020F16C2A9AF0BEF3395E0FEEFCD
:100D660025E0FFEE33FE90000BE0FD3395E0FC90AE
:100D7600068675F090ED1212F4EC75F090A42583BA
:100D8600F583AD0AED3395E0FC75F006ED1212F42D
:100D9600EC75F006A42583F583E5822FF582E583BD
:100DA6003EF583E493FC740193FDAF0BEF3395E0BE
:100DB600FEEF25E0FFEE33FE90000BE0FB3395E0FF
:100DC600FA90065675F090EB1212F4EA75F090A4BC
:100DD6002583F583AB0AEB3395E0FA75F006EB1243
:100DE60012F4EA75F006A42583F583E5822FF582D1
:100DF600E5833EF583E4935CFC7401935DFDAF0BE4
:100E0600EF3395E0FEEF25E0FFEE33FE90000BE0BA
:100E1600FB3395E0FA9006B675F090EB1212F4EA01
:100E260075F090020F6B90000FE0FF7804A2E713B5
:100E3600D8FBF525EF540FF52490000EE0FF78045B
:100E4600A2E713D8FBF523EF540FF522C2A9AF0B87
:100E5600EF3395E0FEEF25E0FFEE33FEAD24ED33F4
:100E660095E0FC9000E675F030ED1212F4EC75F0AA
:100E760030A42583F583AD0AED3395E0FC75F006C5
:100E8600ED1212F4EC75F006A42583F583E5822FA6
:100E9600F582E5833EF583E493FC740193FDAF0B85
:100EA600EF3395E0FEEF25E0FFEE33FEAB25EB33A7
:100EB60095E0FA90005675F030EB1212F4EA75F0F0
:100EC60030A42583F583AB0AEB3395E0FA75F0067B
:100ED600EB1212F4EA75F006A42583F583E5822F5A
:100EE600F582E5833EF583E4935CFC7401935DFD36
:100EF600AF0BEF3395E0FEEF25E0FFEE33FEAB23BD
:100F0600EB3395E0FA9002C675F030EB1212F4EA74
:100F160075F030A42583F583AB0AEB3395E0FA75BB
:100F2600F006EB1212F4EA75F006A42583F583E5C4
:100F3600822FF582E5833EF583E4935CFC7401938E
:100F46005DFDAF0BEF3395E0FEEF25E0FFEE33FEE0
:100F5600AB22EB3395E0FA9003E675F030EB121214
:100F6600F4EA75F030A42583F583AB0AEB3395E0FC
:100F7600FA75F006EB1212F4EA75F006A42583F56D
:100F860083E5822FF582E5833EF583E4935CFE7468
:100F960001935DFFE50A75F006A42433F8E50B25F9
:100FA600E028F8A60608A607E50A75F006A4243385
:100FB600F8E50B25E028F8C000E6FC08E6FDAF0BD7
:100FC600EF3395E0FEEF25E0FFEE33FEAB0AEB33A1
:100FD60095E0FA90002675F006EB1212F4EA75F029
:100FE60006A42583F583E5822FF582E5833EF58306
:100FF600E4935CFE7401935DD000A60608F6D2A9C0
:101006000210BDAF0AEF3395E04F7035AF0BEF33EB
:1010160095E04F702CFFEFFD3395E0FCC3ED94088F
:10102600EC64809480501AEF3395E0FC74082DF53B
:101036008274003CF583E0F5993099FDC2990F80E2
:10104600D5C2A9AF0BEF3395E0FEEF25E0FFEE33F7
:10105600FEAD0AED3395E0FC90002675F006ED1224
:1010660012F4EC75F006A42583F583E5822FF5824C
:10107600E5833EF583E493FA740193FB900A467583
:10108600F006ED1212F4EC75F006A42583F583E55F
:10109600822FF582E5833EF583E4935AFE7401932D
:1010A6005BFFED75F006A42433F8E50B25E028F880
:1010B600A60608A607D2A9050B020A91050A020A86
:0110C60079B0
:0110C7002206
:10169200758921758CF9E4F58A758BFA758DFA7561
:1016A2009850F587D288D28AD28CD28E75B8129091
:1016B200800A742FF0A3740AF0C293D2B4D2A9D2D2
:0816C200A8D2AAD2ACD2AF22DB
:1016CA001216922094FD30021EAF26EF3395E0FEEB
:1016DA00EF2401FFE43EFE7C007D061212BE8D2639
:0F16EA00C2A8120A76D2A875750B2094D680FB81
:0300030002135590
:10135500C0E0C0F0C083C082C0D075D000C000C05E
:1013650002C003C004C005C006C007121650B20370
:10137500A200E433FF2097047E0180027E00EE5F29
:10138500FFE575FD3395E0FCD3ED9400EC648094A6
:101395008040047E0180027E00EE4F24FF920212FF
:1013A5000A7630011AAF63EF3395E0FED3EF940070
:1013B500EE648094805004C201800D156380097528
:1013C500630575640075760030040D30B406C2B44B
:1013D500C2048006D2B48002C2B4AF75EF3395E083
:1013E500FED3EF9400EE6480948040021575D0071B
:1013F500D006D005D004D003D002D000D0D0D08202
:07140500D083D0F0D0E032EB
:03000B0002149844
:10149800C0E0C0F0C083C082C0D075D000C000C01A
:1014A80001C002C003C004C005C006C00730024125
:1014B800C293E52175F006A42433F8E6FE08E6FF9A
:1014C800E52175F006A42435F8E6FC08E6FDE521DB
:1014D80075F006A42437F8E6FA08E6FB12151C1284
:1014E8000006E52104FF75F00812125685F02180E8
:1014F80002D293758CF9758A00D007D006D005D032
:1015080004D003D002D001D000D0D0D082D083D074
:04151800F0D0E032FD
:030013000210C810
:1010C800C0E0C0F0C083C082C0D075D000C000C0EE
:0D10D80001C002C003C004C005C006C0076F
:1010E500D201E56475F004121256AFF0EF3395E0C6
:1010F5004F701830B5047F0180027F00E564A2E7D8
:1011050013A2E7132427F8A6078026E564A2E713B0
:10111500A2E713FF2427F8C000E625E0D000F67407
:10112500272FF8E6FF30B5047E0180027E00EF4EE2
:10113500F60564AF64EF3395E0FEC3EF9430EE64DB
:10114500809480500302123B756400E4FFFEEEFDBF
:101155003395E0FCC3ED940BEC64809480500A74E5
:10116500272EF8E62FFF0E80E553070FE52A540CCE
:10117500FEBE0C0CEFB53204D2008006C200800220
:10118500C200200003021236C2A8E530C454F0FFA5
:10119500E531540F4F900000F0E52EC454F0FFE503
:1011A5002F540F4FA3F0E52D540FA3F0E52C30E39A
:1011B50011AF2DEF3395E0FEEF640C4E6004E02493
:1011C5000CF0900002E0F52DE52D75F00A1212568F
:1011D500C454F0FFE52D75F00A121256AEF0EE4F2D
:1011E500900002F0E52C5407A3F0E52A5403C454FB
:1011F500F0FFE52B540F4FA3F0E52975F00A121205
:1012050056C454F0FFE52975F00A121256AEF0EEF9
:101215004F900005F0E527C454F0FFE528540F4F23
:10122500A3F0A37420F07B017A00790012159ED2F9
:06123500A8A200B3920420
:10123B00D007D006D005D004D003D002D001D00007
:0B124B00D0D0D082D083D0F0D0E032B1
:030023000215FAC9
:1015FA00C0E0C083C082C0D075D000C000C001C0A6
:10160A0002C003C006C007D201C2ACC298AF7605B9
:10161A007674652FF8A699AF76EF3395E0FEC3EF9F
:10162A009410EE64809480400612171C757600D2DE
:10163A00ACD007D006D003D002D001D000D0D0D091
:06164A0082D083D0E032E3
:101418000216CAE493A3F8E493A34003F68001F20A
:1014280008DFF48029E493A3F85407240CC8C333D5
:10143800C4540F4420C8834004F456800146F6DFA4
:10144800E4800B01020408102040809016F9E47E25
:10145800019360BCA3FF543F30E509541FFEE49399
:10146800A360010ECF54C025E060A840B8E493A360
:10147800FAE493A3F8E493A3C8C582C8CAC583CA8B
:10148800F0A3C8C582C8CAC583CADFE9DEE780BE43
:01171B0000CD
:10125600C2D530F707B2D563F0FF05F030E70CB220
:10126600D5F4048463F0FF05F080018430D502F4E0
:02127600042250
:10127800BB010689828A83E0225002E722BBFE0274
:09128800E32289828A83E49322A7
:10129100BB010CE58229F582E5833AF583E0225012
:1012A10006E92582F8E622BBFE06E92582F8E2225C
:0D12B100E58229F582E5833AF583E4932276
:1012BE00C2D5EC30E709B2D5E4C39DFDE49CFCEE4B
:1012CE0030E715B2D5E4C39FFFE49EFE121300C3B0
:1012DE00E49DFDE49CFC800312130030D507C3E4AB
:0612EE009FFFE49EFE22BA
:0C12F400A42582F582E5F03583F5832205
:10130000BC000BBE0029EF8DF084FFADF022E4CCD1
:10131000F875F008EF2FFFEE33FEEC33FCEE9DEC9A
:10132000984005FCEE9DFE0FD5F0E9E4CEFD22EDE0
:10133000F8F5F0EE8420D21CFEADF075F008EF2F2A
:10134000FFED33FD4007985006D5F0F222C398FD1B
:051350000FD5F0EA22B8
:00000001FF
