:10000300759850E4F587758920D2AFD2AC758BFD16
:07001300758DFDD28E80FE09
:03002300020026B2
:10002600C0E0C0F0C083C082C0D0C2ACC29885997F
:1000360008E50824CFB40800505E90004E75F00322
:10004600A4C58325F0C5837302006602006D020015
:100056007402007B0200820200890200900200976F
:100066007590FED2A380367590FDD2A3802F759031
:10007600FBD2A380287590F7D2A380217590EFD28A
:10008600A3801A7590DFD2A380137590BFD2A38088
:100096000C75907FD2A38005C2A37590FFD2ACD019
:0A00A600D0D082D083D0F0D0E03239
:030000000200B04B
:0C00B000787FE4F6D8FD7581080200039B
:00000001FF
