:0A0139003F065B4F666D7D077F6F88
:03000B00020006EA
:030006000522329E
:0300030002006494
:09006400C0E0C0D075D000C0005E
:10006D00300029E522C3943F500AE522C394214074
:10007D000375210074272521F8A62275220005217C
:10008D00E521B4210CD2017521008005752200D225
:01009D000062
:07009E00D000D0D0D0E03209
:0D012000758902E4F58CF58AD2A9D28C22F3
:07014300D288D2A8D2AF223E
:10000E00E5251200D600410800320C0037180046D4
:10001E001C005042005A4A005552004B5A003C5E9A
:10002E000000006190013A802690013B80219001F2
:10003E003C801C90013D801790013E801290013F44
:10004E00800D90014080089001418003900142E4B0
:06005E0093F580C20222AE
:1000A5007E01E4FD7C0174272EF8E6D39407400316
:1000B500430780ECC394085004EFC313FF0E0CBC38
:1000C50009E474232DF8A607E4FF0DBD04D6D2027A
:0100D5002208
:1000FC00120143120120C2A67580FED2A7C2A775B9
:10010C00803FD2A63001051200A5C2013002F512C3
:04011C00000E80F061
:0300000002012DCD
:0C012D00787FE4F6D8FD7581470200FCE5
:1000D600D083D082F8E4937012740193700DA3A3B9
:1000E60093F8740193F5828883E4737402936860CD
:0600F600EFA3A3A380DFCD
:00000001FF
