:10014000492077616E7420746F206272696E672037
:10015000006F757420746865207365637265742020
:1001600020006F66206E617475726520616E642078
:100170002020006170706C79207468656D20666F56
:10018000722020007468652068617070696E657304
:1001900073206F66006D616E2E4920646F6E277448
:1001A000206B6E6F77006F6620616E7920626574D8
:1001B00074657220732D002D6572766963652074F5
:1001C0006F206F6666657200666F722074686520C6
:1001D00073686F727420742D002D696D65207765CA
:1001E0002061726520696E20200074686520776F39
:1001F000726C642E202020202020002D2D2D54688C
:0C0200006F6D617320456469736F6E00C0
:10020C00E50893FF12027D7F647E00120220D2A3C8
:04021C007F327E00AF
:10022000D3EF9400EE940040147D6E7C00ED1D70C1
:0D023000011CED4C70F7EF1F70E61E80E31F
:01023D00229E
:07025F007F011202667F809F
:10026600C2B58F807F057E00120220D2B47F057E44
:0702760000120220C2B422B5
:10027D00D2B58F807F057E00120220D2B47F057E1D
:07028D0000120220C2B4229E
:10023E00C2B6C2A6C2A7C2B47F381202667F0E1221
:10024E0002667F061202667F011202667F8002023C
:01025E006639
:1000030012023EE4F508C2A390014012020C050857
:10001300E508C3941040EF7FC0120266E4F508C2FE
:10002300A390015112020C0508E508C3941040EF98
:1000330012025FE4F508C2A3E50890016212020E02
:100043000508E508C3941040ED7FC0120266E4F58D
:1000530008C2A3E50890017312020E0508E508C360
:10006300941040ED7F801202667F01120266E4F570
:1000730008C2A3E50890018412020E0508E508C32F
:10008300941040ED7FC0120266E4F508C2A3E508B0
:1000930090019512020E0508E508C3941040ED1275
:1000A300025FE4F508C2A3E5089001A612020E055B
:1000B30008E508C3941040ED7FC0120266E4F5081A
:1000C300C2A3E5089001B712020E0508E508C39420
:1000D3001040ED12025FE4F508C2A3E5089001C8E1
:1000E30012020E0508E508C3941040ED7FC012020A
:1000F30066E4F508C2A3E5089001D912020E0508CB
:10010300E508C3941040ED12025FE4F508C2A3E5CD
:10011300089001EA12020E0508E508C3941040EDA9
:100123007FC0120266E4F508C2A3E5089001FB1242
:0D013300020E0508E508C3941040ED80FEA3
:0300000002029465
:0C029400787FE4F6D8FD758108020003B5
:00000001FF
