:0300000002001EDD
:0C001E00787FE4F6D8FD75816102006572
:1001A200A9EF93F073F149F207F3C8F373F41EF564
:1001B200B6F54CF6D7F65AF7D8F74DF8BDF824F94C
:1001C20087F9E4F93DFA90FADEFA29FB6FFBB1FBFD
:1001D200EFFB2AFC62FC95FCC7FCF6FC22FD4BFD02
:0801E20073FD98FDBBFDDCFD7F
:1000AA00202A0A0C0C1313151513111110100E0E19
:1000BA000C1313111110100E1313111110100E0C32
:1000CA000C1313151513111110100E0E0C202A37CC
:1000DA0002020202020202020202020202020202F6
:1000EA0002020202020202020202020202020202E6
:0A00FA0002020202020202020202E8
:1001EA00758911D2A9D2AB758AAF758C3CE4F561D9
:1001FA00F53574372535F8E6F509750808D2AFD212
:04020A008CD28E22E2
:10015A001201EA740A2535F8E6FF25E024A2F582A1
:10016A00E43401F583E493F536EF25E024A3F58220
:10017A00E43401F583E493F534E50970D6E53524D2
:10018A0001FFE433FE7C007D2A1201058D357437A8
:08019A002535F8E6F50980BBEC
:03000B0002020EE0
:10020E00C0E0C0D00561E561C395084005150975CC
:0D021E006100758AAF758C3CD0D0D0E03205
:03001B0002000ED2
:09000E0085368B85348DB29732E2
:10002A0002015AE493A3F8E493A34003F68001F291
:10003A0008DFF48029E493A3F85407240CC8C333D7
:10004A00C4540F4420C8834004F456800146F6DFA6
:10005A00E4800B01020408102040809000AAE47E8C
:10006A00019360BCA3FF543F30E509541FFEE4939B
:10007A00A360010ECF54C025E060A840B8E493A362
:10008A00FAE493A3F8E493A3C8C582C8CAC583CA8D
:10009A00F0A3C8C582C8CAC583CADFE9DEE780BE45
:0101040000FA
:10010500BC000BBE0029EF8DF084FFADF022E4CCDE
:10011500F875F008EF2FFFEE33FEEC33FCEE9DECA7
:10012500984005FCEE9DFE0FD5F0E9E4CEFD22EDED
:10013500F8F5F0EE8420D21CFEADF075F008EF2F37
:10014500FFED33FD4007985006D5F0F222C398FD28
:050155000FD5F0EA22C5
:00000001FF
