:08025C0000CC00CC00CC00CC6A
:100214000408293031320B10004C0C440404CCCCBB
:03022400CCCC58E7
:0F015400C2A37F2C7E01120163D2A37F2C7E01F8
:10016300EF1FAA0670011E4A6013E4FCFDC3ED9461
:0D01730050EC940050EA0DBD00010C80F02E
:01018000225C
:1001AE00E4FFE52025E0F520D297309605432001A7
:0D01BE0080035320FEC2970FBF08E7AF205B
:0101CB002211
:1001CC008F20E4FFE52030E704D2958002C295D25F
:0D01DC0097E52025E0F520C2970FBF08E74A
:0101E90022F3
:10022800D293C297D2B3D294D292D291C2B2C29090
:0102380022A3
:10020000C293E4FE74102EF8E6FF1201CC0EBE0B72
:03021000F3D29393
:0102130022C8
:06008F008B0D8A0E890FA3
:10009500C2937F201201CCE4FEAB0DAA0EA90F8EF0
:1000A50082758300120181FF1201CC0EBE04EAD2D3
:1000B500937F017E00120163C2937F221201CCE47B
:1000C500FEEE25E0245CF582E43402F583740193A9
:1000D500FF1201CC0EBE04E9D293D2B27F017E009D
:0500E500120163C2B22C
:0100EA0022F3
:0B024600C2B2D2907F017E0002016373
:0B025100C290D2B27F017E0002016368
:0D023900D2B330B305C2B37F01227F002293
:1000EB007F017E001201637F647E00120163C2B246
:1000FB00C2937F017E001201637F241201CCE4FEC8
:10010B001201AE74082EF8A6070EBE04F3D2937F2D
:08011B000A7E00120163D2B25A
:0101230022B9
:1001EA001202517F0A7E001201631200EBE508B485
:0601FA002903120154224A
:10012400120228120200D2A31201EA20B00930B050
:10013400FD750C01750829E50CB401EC1202467B2F
:10014400007A00790812008F120154E4F50C80D86B
:03000000020003F8
:0C000300787FE4F6D8FD75812002004AE9
:10018100BB010CE58229F582E5833AF583E0225033
:1001910006E92582F8E622BBFE06E92582F8E2227D
:0D01A100E58229F582E5833AF583E4932297
:10000F00020124E493A3F8E493A34003F68001F2E2
:10001F0008DFF48029E493A3F85407240CC8C333F2
:10002F00C4540F4420C8834004F456800146F6DFC1
:10003F00E4800B0102040810204080900214E47E3B
:10004F00019360BCA3FF543F30E509541FFEE493B6
:10005F00A360010ECF54C025E060A840B8E493A37D
:10006F00FAE493A3F8E493A3C8C582C8CAC583CAA8
:10007F00F0A3C8C582C8CAC583CADFE9DEE780BE60
:0102270000D6
:00000001FF
