:030000000200FFFC
:0C00FF00787FE4F6D8FD75810E02000643
:1000EF004000102000300001080904050C0D020328
:1000AC00AF08E4FDFCEF75F00A8474092DF8A6F096
:1000BC00EF75F00A84FF0DBD00010CED64044C706B
:0100CC00E44F
:0100CD002210
:1000CE00758921758CF5758AE5D288C28AE4F58D1D
:1000DE00F58BD2A9D28CD28ED2A8D2AFF50DF50E59
:0100EE0022EF
:050006001200CE80FE97
:0300030002008672
:10008600C0E0C0F0C0D075D000C000C004C005C03C
:1000960007858B081200ACD007D005D004D000D05D
:0600A600D0D0F0D0E032E2
:03000B0002000EE2
:10000E00C0E0C083C082C0D075D000C007758CF52B
:10001E00758AEAE50E2401FF750D00EF5403F50E07
:10002E00E50D7049E50E14601614601F1460282447
:10003E0003703AE50C9000F593FF9000F18022E5F5
:10004E000B9000F593FF9000F28016E50A9000F5F4
:10005E0093FF9000F3800AE5099000F593FF90005E
:10006E00F4E4934FFF9000EFE4934FF590D007D058
:08007E00D0D082D083D0E03223
:00000001FF
