:030000000200EC0F
:0C00EC00787FE4F6D8FD758152020133E4
:1003900052585F414444525F50303A0020004E5260
:1003A000462D5354415455533A004E52462D434F17
:0603B0004E4649473A00E9
:0703400005080000000000A9
:1000030012045312027D1204321201C57B007A00DE
:10001300790875110A7F0A1202E17F647E001203D8
:10002300B67BFF7A037990E4FDFF120243AF081217
:100033000178E4FD7F011202437BFF7A03799C7D03
:10004300027F01120243AF091201787D037F01127F
:1000530002437BFF7A03799C7D057F01120243AF44
:100063000A1201787D067F011202437BFF7A03792E
:100073009C7D087F01120243AF0B1201787D097F3B
:10008300011202437BFF7A03799C7D0B7F011202ED
:1000930043AF0C1201787D0C7F011202437F887EEF
:1000A300131203B67F011203EF7F057E001203B61E
:1000B3007BFF7A03799EE4FDFF1202437F0712045C
:1000C300401201787D0CE4FF1202437BFF7A03792F
:1000D300AAE4FD7F01120243E4FF120440120178F7
:0900E3007D0C7F0112024380FE36
:02045800002280
:06044D0000000000002287
:1003B600D3EF9400EE940040147D707C00ED1D7028
:0D03C600011CED4C70F7EF1F70E61E80E388
:0103D3002207
:05045300C2A6C2A722B1
:100347001026313233343536373839414243444544
:09035700460005210A14101001F2
:1003EF008F80C2B5C2B47F057E001203B6D2B47F30
:0903FF00057E001203B6C2B4220F
:100408008F80D2B5C2B47F057E001203B6D2B47F06
:09041800057E001203B6C2B422F5
:10027D00C2B67F381203EF7F057E001203B67F0CE6
:10028D001203EF7F057E001203B67F061203EF7F88
:10029D00057E001203B67F011203EF7F057E00027B
:0202AD0003B696
:10017800EF75F06484FEEF75F06484ADF0ED75F012
:100188000A84FCED75F00A84AFF0E4FDEE600A2401
:1001980030FEED2436F8A6060DEC600A2430FE7415
:1001A800362DF8A6060DEF2430FF74362DF8A60775
:0C01B8000D74362DF8E4F6FB7A00793661
:0101C4002218
:060243008B0D8A0E890FED
:10024900EF146007047006E4FF80027F40EF24800A
:100259002DFF1203EFAB0DAA0EA90F1202086013AE
:10026900050FE50F7002050E14F9120208FF1204BA
:030279000880E218
:01027C00225F
:100368008B15EF146007047006E4FF80027F40EFEE
:1003780024802DFF1203EF74262515F8E6FF600789
:07038800120408051580F0C6
:01038F00224B
:07036000054E3443101001AB
:1003D400E4FEC297EF339295EF25E0FFD297A29601
:0A03E400E43342070EBE08EAC29798
:0103EE0022EC
:10042100C2931203D4AB07AF051203D4D293AF0327
:0104310022A8
:0C044000C2931203D4E4FF1203D4D29341
:01044C00228D
:0602E1008B0E8A0F89104C
:1002E700C2931203D4AD07E4FCECC395115017E495
:1002F700FF1203D4AB0EAA0FA9108C82758300EFEF
:0A0307001202210C80E3D293AF052F
:0103110022C9
:0602AF008B0E8A0F89107E
:1002B500C2931203D4AD07E4FCECC395115018ABFF
:1002C5000E0510E510AA0F7002050F14F9120208A9
:0B02D500FF1203D40C80E2D293AF05AF
:0102E00022FB
:0E043200C292D293C297D29412044D02044D8E
:1001C500C2927B007A00794E7511057F2A1202AF23
:1001D500E4FDFC7F211204210D7F221204217D28DC
:1001E5007F251204217D0A7F311204217D077F2698
:1001F5001204217D0F7F20120421D2927F017E00FF
:030205000203B63B
:060312008B128A1389140E
:10031800E4FA7F071204408F20300619AB12AA13A3
:10032800A91475110A7F611202E17A017DFF7C0030
:070338007F27120421AF0230
:01033F00229B
:1000F800020003E493A3F8E493A34003F68001F21B
:1001080008DFF48029E493A3F85407240CC8C33308
:10011800C4540F4420C8834004F456800146F6DFD7
:10012800E4800B0102040810204080900340E47E24
:10013800019360BCA3FF543F30E509541FFEE493CC
:10014800A360010ECF54C025E060A840B8E493A393
:10015800FAE493A3F8E493A3C8C582C8CAC583CABE
:10016800F0A3C8C582C8CAC583CADFE9DEE780BE76
:010367000095
:10020800BB010689828A83E0225002E722BBFE02F4
:09021800E32289828A83E4932227
:10022100F8BB010DE58229F582E5833AF583E8F013
:10023100225006E92582C8F622BBFE05E92582C8BF
:02024100F222A7
:00000001FF
