:10006E00C7E5CFE8B5E7D7D300A1A33531B5A5C60F
:10007E00ACBBFABFAAB7A2B0E500D2BBC6F0D1A7FF
:10008E00CFB0B5A5C6ACBBFA00A1A3CAC7C4FAD7F8
:0B009E00EEBAC3B5C4D1A1D4F120001C
:0400CF007F057E002B
:0A00D300EF1FAC0670011E4C601216
:1000DD00E4F50EE50EC394FA50EC00000000050E99
:0200ED0080F1A0
:0100EF0022EE
:10014600C2B5D2B6D2B400000000E580339200C238
:03015600B4A20050
:010159002283
:1001100012014640FBC2B5C2B6C2B400008F8000D7
:0C012000000000D2B400000000C2B422B5
:10012C0012014640FBD2B5C2B6C2B48F80000000AB
:0A013C0000D2B400000000C2B4229B
:1000A900D2B17F341201101200CF7F301201101229
:1000B90000CF7F0C1201101200CF7F011201107FB7
:0600C900057E000200D3D9
:100003007F0A7E001200D3C2A6C2A71200A9E4FD94
:10001300FF1200F0E4FEEE90006E93FF6006120103
:100023002C0E80F2E4FD7F011200F0E4FEEE90005E
:100033007793FF600612012C0E80F2E4FD7F02121B
:1000430000F0E4FEEE90008893FF600612012C0E90
:1000530080F2E4FD7F031200F0E4FEEE900097933C
:0B006300FF600612012C0E80F280FEF0
:1000F000EF70047F808013BF01047F90800CBF02EB
:10010000047F888005BF03027F98EF2DFF02011056
:0300000002015AA0
:0C015A00787FE4F6D8FD758120020003D8
:00000001FF
