:100217003F065B4F666D7D077F6F777C395E79712F
:03022700010A6465
:100203008F0BE50BD39400400A750C7DD50CFD15BF
:040213000B80EF224B
:0401EC00D2A3AF09E2
:1001F000EF90021793F580D2A6C2A6E4F580D2A7AD
:03020000C2A72270
:10000300C2A6C2A775B0FE85B0085308F0E5086420
:10001300F060457F0A120203E50864F0603A85B098
:1000230008E5082482601B24C0601224E0600924D0
:10003300F07012E4F509800D750901800875090255
:100043008003750903E50864F0600A85B008530866
:10005300F0C2A380F01201EC75B0FD85B00853081F
:10006300F0E50864F060457F0A120203E50864F0D6
:10007300603A85B008E5082483601B24C06012241D
:10008300E0600924F07012750904800D750905807C
:10009300087509068003750907E50864F0600A8599
:1000A300B0085308F0C2A380F01201EC75B0FB85D1
:1000B300B0085308F0E50864F060457F0A120203B4
:1000C300E50864F0603A85B008E5082485601B24E0
:1000D300C0601224E0600924F07012750908800DD5
:1000E300750909800875090A800375090BE5086419
:1000F300F0600A85B0085308F0C2A380F01201EC47
:1001030075B0F785B0085308F0E50864F070030292
:1001130000077F0A120203E50864F0700302000778
:1001230085B008E5082489601B24C0601224E060C0
:100133000924F0701275090C800D75090D8008757E
:10014300090E800375090FE50864F0600A85B0089D
:0D0153005308F0C2A380F01201EC02000777
:030000000201609A
:0C016000787FE4F6D8FD75810C0201A741
:10016C00020003E493A3F8E493A34003F68001F2A6
:10017C0008DFF48029E493A3F85407240CC8C33394
:10018C00C4540F4420C8834004F456800146F6DF63
:10019C00E4800B0102040810204080900227E47ECA
:1001AC00019360BCA3FF543F30E509541FFEE49358
:1001BC00A360010ECF54C025E060A840B8E493A31F
:1001CC00FAE493A3F8E493A3C8C582C8CAC583CA4A
:1001DC00F0A3C8C582C8CAC583CADFE9DEE780BE02
:01022A0000D3
:00000001FF
