:030000000201B842
:0C01B800787FE4F6D8FD7581200201FF7D
:0C02DE00011464011500C182C100C101BF
:10029300758921E4F58CF58A758BFD758DFD75984F
:1002A30050F587D288D28AD28CD28E75B801D2B556
:0902B300D2A9D2A8D2ACD2AF222C
:0500060012029380FED0
:0300030002000EEA
:10000E00C0E0C0F0C083C082C0D075D000C000C0B8
:0D001E0001C002C003C004C005C006C00739
:10002B00D201E51575F0041202BCAFF0EF3395E089
:10003B004F701830B3047F0180027F00E515A2E7F3
:10004B0013A2E7132408F8A6078026E515A2E713E9
:10005B00A2E713FF2408F8C000E625E0D000F674F1
:10006B00082FF8E6FF30B3047E0180027E00EF4ECE
:10007B00F60515AF15EF3395E0FEC3EF9430EE6444
:10008B00809480500302019D751500E4FBFEEEFD8C
:10009B003395E0FCC3ED940BEC64809480500A74B0
:1000AB00082EF8E62BFB0E80E553030FE50B540CE3
:1000BB00FDBD0C0CEBB51304D2008006C200800210
:1000CB00C20020000302016FE511C454F0FDE512DC
:1000DB00540F4D900000F0E50FC454F0FFE51054A1
:1000EB000F4FA3F0E50E540FA3F0E50D30E311E530
:1000FB000EFD3395E0FCED640C4C6004E0240CF039
:10010B00900002E0F50EE50E75F00A1202BCC45425
:10011B00F0FFE50E75F00A1202BCADF0ED4F90004A
:10012B0002F0E50D5407A3F0E50B5403C454F0FFA4
:10013B00E50C540F4FA3F0E50A75F00A1202BCC48C
:10014B0054F0FFE50A75F00A1202BCADF0ED4F90CA
:10015B000005F0E508C454F0FFE509540F4FA3F078
:10016B00A37420F07E00EEFD3395E0FCC3ED940C00
:10017B00EC64809480500F74082EF8E6F599309952
:10018B00FDC2990E80E08B993099FDC299A200B304
:02019B009202CE
:10019D00D007D006D005D004D003D002D001D000B6
:0B01AD00D0D0D082D083D0F0D0E03260
:03000B00020244AA
:10024400C0E0C0D075D000C006C00730011AAF149A
:10025400EF3395E0FED3EF9400EE64809480500475
:10026400C201800A151480067514647515003002E5
:100274000D30B506C2B5C2028006D2B58002C2B541
:0F028400758C00758A00D007D006D0D0D0E0323C
:1001C400020006E493A3F8E493A34003F68001F24B
:1001D40008DFF48029E493A3F85407240CC8C3333C
:1001E400C4540F4420C8834004F456800146F6DF0B
:1001F400E4800B01020408102040809002DEE47EBB
:10020400019360BCA3FF543F30E509541FFEE493FF
:10021400A360010ECF54C025E060A840B8E493A3C6
:10022400FAE493A3F8E493A3C8C582C8CAC583CAF1
:10023400F0A3C8C582C8CAC583CADFE9DEE780BEA9
:0102EA000013
:1002BC00C2D530F707B2D563F0FF05F030E70CB2CA
:1002CC00D5F4048463F0FF05F080018430D502F48A
:0202DC000422FA
:00000001FF
