:03000000020006F5
:0C000600787FE4F6D8FD75813F02056CA0
:10055A00004000800901880800200222042406269F
:02056A0010304F
:10050A00D3EF9400EE940040147D6E7C00ED1D70D4
:0D051A00011CED4C70F7EF1F70E61E80E332
:0105270022B1
:0A052800AB08AA09A90A1202DBFFC2
:10053200EF75F00A84AEF0EF75F00A84C454F02E21
:01054200FFB9
:010543002295
:0B00160090800A7426F0A3740AF02208
:1004DF00908000E0F523908002E0F524908004E006
:1004EF00F525908006E0F526A3E0F527A3E0F52893
:0B04FF00A3E0F529908032E0F52A22EE
:0601CE008B088A09890A72
:1001D40090800BE0F50BE50B4480F01202C2FF1295
:1001E4000532908000EFF090000112052890800203
:1001F400EFF0900002120528908004EFF0AB08AAFB
:1002040009A90A9000061202DBFF1313543F2FFFC3
:10021400E433FE9000071202DBFD1313543F7A000F
:100224002FFBEA3EFAED75F002A4FFC3EB9FFDEA53
:1002340095F0FCC004C005AB08AA099000051202A1
:10024400DB2401FFE433FE7C007D1A1203087D0ADF
:1002540012036FD0E02FFDD0E03EFC9000041202A8
:10026400DBFB7E002DFFEE3CCF24FFCF34FFFE7C72
:10027400007D0712031AED04908006F0AF03120507
:1002840032A3EFF0AB08AA09A90A90000512052EC3
:10029400908008EFF0AB08AA09A90A90000612059D
:1002A4002E908009EFF0AB08AA09A90A9000071262
:0D02B400052E908032EFF090800BE50BF0EE
:0102C100221A
:10054400E5301470097B007A0079311201CEC200C3
:06055400E4F52BF52C225A
:10002600E5221470030200DF147003020152240259
:1000360060030201C9EF14601814601A14603814C2
:10004600604C146079240560030201CBE5230200AD
:10005600F8E523020107E524540F90056293FD900D
:10006600055EE4934DFDC3E52D94027A0050047BB2
:1000760001803A7B008036E524C4540F7E00540F7D
:100086002462F582EE3405F583E49302012DE5251D
:10009600540F90056293FD900560E4934DFDC3E512
:1000A6002D94027A0050047B0180027B00745A2B47
:1000B600F58274053AF583E4934DFE0201CBE525FE
:1000C600C4540F7E00540F2462F582EE3405F58386
:1000D600E493FF9005610201B8EF14602214603AC0
:1000E60014603C14604814605F240560030201CB71
:1000F600E527540F90056293FF90055C0201B8E571
:1001060027C4540F7E00540F2462F582EE3405F5A1
:1001160083E493FF90055D0201B87EFF0201CBE503
:1001260028540F90056293FF90055F0201B8E528F9
:10013600C4540F7E00540F2462F582EE3405F58315
:10014600E493FF900560806A7EFF8079EF14601467
:1001560014601F14603614604114606324057065D2
:100166007EFF8061E529540F90056293FF90055D3F
:100176008040E529C4540F7E00540F2462F582EEB8
:100186003405F583E493FF90055E8026E52A540F37
:1001960090056293FF90055F8018E52AC4540F7E90
:1001A60000540F2462F582EE3405F583E493FF9044
:1001B6000560E4934FFF90055AE4934FFE80067E58
:0701C600FF80027EFFAF067F
:0101CD00220F
:1004B000120016E4F52BF52CF522F52DF52EC200D1
:1004C000759850F587758920438805D2AC758BFDEA
:0F04D000758DFDD28ED2A8D2AA75B811D2AF22E7
:05056C001204B080FE46
:0300030002047B79
:10047B00C0E0C0D075D000C004C005C006C0077F67
:10048B000A7E0012050AE5B0600EC2AF7590FFE55B
:10049B0022045403F522D2AFD007D006D005D004E6
:0504AB00D0D0D0E032CA
:030013000203A540
:1003A500C0E0C0F0C083C082C0D075D000C000C01E
:1003B50002C003C004C005C006C0071204DFE52F54
:1003C5002401FFE433FE7C007D0612031A8D2FE520
:1003D50023B5210BE52E2401FFE4352DFE80047E97
:1003E500007F008E2D8F2EAF2F1200268F90E526D1
:1003F50014FFF87401088002C333D8FCF5A08523E7
:1004050021D007D006D005D004D003D002D000D02B
:0A041500D0D082D083D0F0D0E032C6
:0300230002041FB5
:10041F00C0E0C0F0C083C082C0D075D000C000C0A3
:10042F0001C002C003C004C005C006C007C2ACC2F1
:10043F0098052CE52C7002052B142430F8A699C3CF
:10044F00E52C9410E52B648094804003120544D270
:10045F00ACD007D006D005D004D003D002D001D045
:0C046F0000D0D0D082D083D0F0D0E0329A
:1002C200BB010689828A83E0225002E722BBFE023A
:0902D200E32289828A83E493226D
:1002DB00BB010CE58229F582E5833AF583E02250D8
:1002EB0006E92582F8E622BBFE06E92582F8E22222
:0D02FB00E58229F582E5833AF583E493223C
:10030800EF8DF0A4A8F0CF8CF0A428CE8DF0A42E09
:02031800FE22C3
:10031A00BC000BBE0029EF8DF084FFADF022E4CCC7
:10032A00F875F008EF2FFFEE33FEEC33FCEE9DEC90
:10033A00984005FCEE9DFE0FD5F0E9E4CEFD22EDD6
:10034A00F8F5F0EE8420D21CFEADF075F008EF2F20
:10035A00FFED33FD4007985006D5F0F222C398FD11
:05036A000FD5F0EA22AE
:10036F00C2D5EC30E709B2D5E4C39DFDE49CFCEEA9
:10037F0030E715B2D5E4C39FFFE49EFE12031AC304
:10038F00E49DFDE49CFC800312031A30D507C3E4FF
:06039F009FFFE49EFE2218
:00000001FF
