:10020D003F065B4F666D7D077F6F777C395E797139
:09021D007638373E735C400000A6
:0601E900C2A77F017E00A9
:1001EF00D3EF9400EE940040147D787C00ED1D70E9
:0D01FF00011CED4C70F7EF1F70E61E80E351
:01020C0022CF
:100003008C0B8D0CD2A6EF90020D93F580C2A675D2
:1000130080FFD2A77580FE1201E9D2A6740D250CCC
:10002300F5827402350BF583E4934480F580C2A610
:100033007580FFD2A77580FD1201E9D2A6740D2B3E
:10004300F58274023AF583E493F580C2A67580FFC6
:10005300D2A77580FB1201E9D2A6740D2510F58293
:100063007402350FF583E4934480F580C2A675804E
:10007300FFD2A77580F71201E9D2A6740D2512F5F8
:100083008274023511F583E493F580C2A67580FF6F
:10009300D2A77580EF1201E9D2A6740D2514F5825B
:1000A30074023513F583E493F580C2A67580FFD2FD
:0D00B300A77580DFC2A77F017E000201EF6C
:1001A500C29200C29000D29200E4FEC29000EF30ED
:1001B500E004D2918002C291EFC313FFD290000EEA
:1001C500BE08E8AF05E4FEC29000EF30E004D2912E
:1001D5008002C291EFC313FFD290000EBE08E8C2A1
:0301E50092C29033
:0101E80022F4
:10015600C29200C29000D292E4FDC29000EF30E05D
:1001660004D2918002C291EFC313FFD290000DBD5D
:1001760008E8E4FDC29000309103430680EDC39485
:10018600075004EEC313FED2900DBD08E7EEC4542B
:0E0196000F53060F75F00AA42EC292C290FFFE
:0101A4002238
:1000C000E4FDFC7F8E1201A57DFE7FC01201A50D0F
:1000D0007FC21201A57D307F801201A57D107F8235
:1000E0001201A57D157F841201A57D807F8E1201EE
:1000F000A5E4FDFC7F8E1201A57F851201568F08B5
:100100007F831201568F097F81120156A9077D80D6
:100110007F8E1201A5E50875F00A84FFE50875F0E9
:100120000A84E5F0FDE50975F00A84FB7A00E5092B
:1001300075F00A84E5F0750F00F510E975F00A8492
:10014000751100F512E975F00A84E5F0751300F5F4
:0601500014120003809B65
:03000000020226D3
:0C022600787FE4F6D8FD7581140200C05A
:00000001FF
