:100073003F065B4F666D7D077F6F777C395E7971D5
:05008F007FC200DFFD4F
:010094002249
:10004C00EF90007393F580D2A6C2A67580FED2A75E
:10005C00C2A712008FED93F580D2A6C2A67580FDC3
:07006C00D2A7C2A702008F1A
:10000300E4F50FF51012008F0510E5107002050FCF
:10001300C394D0E50F940740EC0508E508B43C030E
:10002300E4F508E50875F00A84F50DE50875F00AAE
:100033008485F00E750932E509D3940040C2AD0EF4
:09004300AF0D12004C150980EE0E
:0300000002008378
:0C008300787FE4F6D8FD758110020003C0
:00000001FF
