:10012A000E0851582D4D4353353120204D4355006B
:10013A000E1620205468616E6B20796F752020009E
:070105001201867F147E0049
:10010C00D3EF9400EE940040147D0A7C00ED1D703A
:0D011C00011CED4C70F7EF1F70E61E80E334
:0101290022B3
:10014B00D3EF9400EE940040147D647C00ED1D70A1
:0D015B00011CED4C70F7EF1F70E61E80E3F5
:010168002274
:100186008F80C2A7C2A57F0A7E0012010CD2A57F6E
:090196000A7E0012010CC2A52230
:10019F008F80D2A7C2A57F0A7E0012010CD2A57F45
:0901AF000A7E0012010CC2A52217
:10016900C2A67F381201057F0F1201057F06120111
:0D017900057F011201867F147E0002010C3B
:10008F00120169C2B47F91120105E4FBEBC3940D19
:10009F0074809480500F74082BF8E6FF12019F12A2
:1000AF0001080B80E77FD11201867F327E0012019B
:1000BF000CE4FBEBC3940D74809480501374162BD7
:1000CF00F8E6FF12019F7F287E0012010C0B80E3E0
:1000DF00E4FBEBC3941074809480500F7F181201CF
:1000EF00867F587E0212014B0B80E77F647E0012E1
:0600FF00010CB2B480F513
:03000000020003F8
:0C000300787FE4F6D8FD75812302004AE6
:10000F0002008FE493A3F8E493A34003F68001F278
:10001F0008DFF48029E493A3F85407240CC8C333F2
:10002F00C4540F4420C8834004F456800146F6DFC1
:10003F00E4800B010204081020408090012AE47E26
:10004F00019360BCA3FF543F30E509541FFEE493B6
:10005F00A360010ECF54C025E060A840B8E493A37D
:10006F00FAE493A3F8E493A3C8C582C8CAC583CAA8
:10007F00F0A3C8C582C8CAC583CADFE9DEE780BE60
:01014A0000B4
:00000001FF
