:0100AD002230
:10000300D3EF9400EE940040147D787C00ED1D70D6
:0D001300011CED4C70F7EF1F70E61E80E33E
:0100200022BD
:10006D00D2A100D2A01200ADC2A01200ADC2A1005B
:01007D002260
:0D008D00D2A100C2A01200ADD2A00200ADB1
:03007E001200214C
:0C008100D2A100C2A01200ADC2A100225A
:0700A600D2A100D2A000224C
:10002100E4FEC2A100EF30E704D2A08002C2A0D258
:0D003100A100EF25E0FF0EBE08E8C2A1000F
:01003E00229F
:10003F00AD0712006D7F9012007E7F4012007EAFE1
:0A004F000512002112008102008D4D
:10005900E4FB1200A6AF0312003F0B7F147E0012CF
:04006900000380F11F
:0300000002009A61
:0C009A00787FE4F6D8FD7581070200595C
:00000001FF
